:020000040800F2
:1000000050A101209D01000845310008E11F0008B2
:1000100041310008090400080D3800080000000004
:10002000000000000000000000000000E1320008B5
:100030000D040008000000005131000805330008DD
:10004000B7010008B7010008B7010008B7010008B0
:10005000B7010008B7010008B7010008B7010008A0
:10006000B7010008B7010008B7010008B701000890
:10007000B7010008B7010008B7010008B701000880
:10008000B7010008B7010008B7010008B701000870
:10009000B7010008B7010008B7010008B701000860
:1000A000B7010008E1330008B7010008B7010008F4
:1000B000B7010008B7010008B7010008B701000840
:1000C000B7010008B7010008B7010008B701000830
:1000D000B701000801380008B7010008B70100089F
:1000E000B7010008B7010008B7010008B701000810
:1000F000B7010008B7010008B7010008B701000800
:10010000B7010008B7010008B7010008B7010008EF
:10011000B7010008B7010008B7010008B7010008DF
:10012000B7010008B7010008B7010008B7010008CF
:10013000B7010008B7010008B7010008B7010008BF
:10014000B7010008B7010008B7010008B7010008AF
:10015000B7010008B7010008B7010008B70100089F
:10016000B7010008B7010008B7010008B70100088F
:10017000B7010008B7010008B7010008000000003F
:10018000B7010008B7010008DFF80CD000F08CF8C8
:10019000004800470D3A000850A10120064880475A
:1001A00006480047FEE7FEE7FEE7FEE7FEE7FEE75C
:1001B000FEE7FEE7FEE7FEE7CD3300088901000811
:1001C0002DE9F05F0546002092469B46884606468C
:1001D000814640241BE0284641464746224600F01F
:1001E00053F853465A46C01A914110D31146184647
:1001F000224600F03AF82D1A67EB01084F462246D6
:100200000120002100F031F817EB00094E41201EBB
:10021000A4F10104DFDC484631462A464346BDE8E6
:10022000F09F40EA01039B0703D009E008C9121FB1
:1002300008C0042AFAD203E011F8013B00F8013BA0
:10024000521EF9D27047D2B201E000F8012B491ECC
:10025000FBD270470022F6E710B513460A46044663
:100260001946FFF7F0FF204610BD202A04DB203A94
:1002700000FA02F1002070479140C2F1200320FAF9
:1002800003F3194390407047202A04DB203A21FAF7
:1002900002F00021704721FA02F3D040C2F120029F
:1002A00091400843194670471CB509480090094819
:1002B00001900546009C06E0E06840F0010394E8E8
:1002C000070098471034AC42F6D3FFF761FF0000F7
:1002D00080620008B0620008F0B581B040F204040A
:1002E000C2F20004B4F91000B4F91210002603227F
:1002F0000323009603F08CFA218AA069E26A47186A
:10030000974213DA626AE169974231DC94F820205F
:10031000002848BF4042802AA06121D181EAE172D1
:10032000C2EBE171E16102221FE000BF94F82030CE
:10033000002848BF4042E169022B05D181EAE17300
:10034000C3EBE171802303E02023002948BF494229
:100350004042C4E9060184F82030D71E08E000BFFF
:100360000822002948BF4942E1610A2784F8202079
:10037000628A236B8E189E420CDDA26B964234DBA0
:1003800094F82030202B23D180EAE073C3EBE07097
:10039000802321E094F82020802A0BD180EAE072AB
:1003A000C2EBE070A0612020002948BF4942E16112
:1003B00009E000BF002848BF40420029A06148BFB3
:1003C0004942E161082084F820000A260DE000BFC0
:1003D0000223002848BF404281EAE176C6EBE17182
:1003E000D61EC4E9060184F820304FF6FF7538B2F6
:1003F00031B203220323009503F00AFA2782012079
:10040000668201B0F0BD0000FEE70000704700000A
:1004100072B600BFFEE70000F0B581B0002003F027
:10042000BFFA40F2600640F20405C2F20006C2F2D2
:100430000005B6F90020B5F944304FF6FF740020EE
:100440000021009403F0E4F940F26207C2F20007D1
:10045000B5F92810B5F94420B7F900300020009410
:1004600003F0D6F9B5F92C00B5F94420B7F90030FE
:100470000021009403F0CCF9B6F90020B5F9401042
:10048000B5F944300020009403F0C2F9EA6895E819
:100490000B0002EBD277A0EB570003EBD377A1EB75
:1004A00057014FF4784700B209B212B21BB200975D
:1004B00003F0AEF9B5F91400B5F9161003220323C1
:1004C000009403F0A5F901B0F0BD000040F2040271
:1004D000C2F20002052305390538C2E90933C2E931
:1004E0000B13C2E90D10C2E90F3070470068C06CF1
:1004F0007047000070B5044600680D4682685205DA
:1005000044BF80685FEAC05038D400F06BFA2168BD
:100510000A68920749D40646681C3CD0DDB90868D1
:10052000800721D5086880073FD4086880071BD55D
:100530000868800739D40868800715D508688007DF
:1005400033D4086880070FD508688007E7D52CE00A
:100550000868800729D400F045FA801B2168A8426A
:10056000F6D908688007F3D4206C40F004002064BA
:10057000002084F83C00032070BD00BF206C40F0D8
:1005800020002064002084F83C00012070BD00BFE2
:100590000868800709D40868800706D408688007BF
:1005A0005CBF08685FEA8070F2D56FF012000860E7
:1005B000206C40F400702064886810F0405F01D027
:1005C000002070BD207E0028FAD1C86A10F4700F98
:1005D00002D088684005F3D4206C20F48070206439
:1005E000206CC004ECD4206C40F00100206400209A
:1005F00070BD000010B581B00021009190F83C1052
:10060000012903D1022001B010BD00BF04680121FF
:1006100080F83C10214651F8083FDB0729D10B68D0
:100620004DF6836243F001030B6040F25403C2F2C3
:1006300000031B68C4F21B32A3FB02239A0C02EBDB
:1006400042020092009AA2B1009A013A0092009AE6
:100650007AB1009A013A0092009A52B1009A013A96
:100660000092009A2AB1009A013A0092009A002A58
:10067000EAD10A68036CD2070CD143F0100101647F
:1006800000F1440101200A6810430860002001B015
:1006900010BD00BF40F2017223EA020202F580722F
:1006A00002646268520504D5026C012363F30D32C3
:1006B0000264026C4FF0000E0023D20444BF426C6F
:1006C00022F0060342F2043C436480F83CE06FF001
:1006D0002200C4F2010C2060DCF80000C0060DD03E
:1006E000ACF5417084422BD14FF60450CFF6FF7029
:1006F0005CF8000010F0405F22D125E042F20000DB
:10070000C4F20100844217D042F20020C4F201007A
:1007100084420DD042F20010C4F2010084420FD195
:10072000DCF80000C00607D0ACF58270844207D127
:10073000DCF80000C00603D4086810F0405F03D066
:10074000002001B010BD00BF4FF080409BE70000CB
:1007500070B5866D044600F045F994F8351002290D
:1007600028D105462068216C026822F0160202603A
:10077000426922F08002426109B9A16C19B1016895
:1007800021F008010160016821F00101016000BF52
:1007900020680068C00715D000F024F9401B062827
:1007A000F6D320206065032084F83500002184F80A
:1007B000341070BD802060650120002184F8341061
:1007C00070BD00BFE06D3F2101FA00F0B060012074
:1007D00084F835000020002184F8341070BD00003A
:1007E00090F83510022909D1052180F835100068EC
:1007F000016821F0010101600020704780214165FE
:1008000001207047B0B5044600F0ECF8054640F210
:100810004C00C2F200000078611C18BF044400BF05
:1008200000F0E0F8401BA042FAD3B0BD2DE9F04F34
:1008300082B000F13E4707F1FF77860546EA972729
:1008400041F60046C4F20206082243F6004EB042CA
:1008500008BF0722C4F2010E072F38BF3A46002610
:1008600000274FF00008009209E000BF08F10108DE
:100870000237B8F1100F06F1040600F0A3800D68EE
:10088000012202FA08F415EA0409EFD0D1F804B005
:1008900003220BF0030CACF10105BA40012D6FEA05
:1008A000020A0FD88268CD6802EA0A02BD402A43D4
:1008B00082604268A243CBF3001404FA08F4224396
:1008C000426005E0BCF1030F02D14FF0030C1EE0C3
:1008D000C2688C6802EA0A02BC402243BCF1020FE3
:1008E000C26014D16FF0030202EA58020244D2F847
:1008F00020C006F01C040F230D69A3402CEA03035B
:10090000A5402B431362D1F804B00BF0030C02682E
:100910000CFA07F302EA0A021A431BF4403F026092
:10092000A4D0002243F644030192C4F202031A68E1
:100930004FF6084C42F480421A601A68CFF6FF7CEA
:1009400002F480420192019A28F00302724452F8A4
:100950000C3006F00C050F24AC40A343009C04FAB5
:1009600005F52B4342F80C30DEF808204B6842EACC
:10097000090543F60C4CDC0258BF22EA0905CEF803
:100980000850C4F2010CDCF800209C0242EA090580
:1009900058BF22EA0905CCF80050DEF804209C0379
:1009A00042EA090558BF22EA0905CEF80450DEF8EC
:1009B0000020DB0342EA090558BF22EA0905CEF808
:1009C000005053E702B0BDE8F08F00000069084016
:1009D00018BF012070470000002A08BF0904816188
:1009E0007047000049F65400C2F2010000687047E9
:1009F00040F24C0049F65401C2F20000C2F201017B
:100A000000780A68104408607047000080B543F61B
:100A10000040C4F20200016841F400710160016805
:100A200041F480610160016841F48071016003203C
:100A300000F0C2F80F2000F005F800F05DF800208B
:100A400080BD0000B0B586B0002543F64401019595
:100A5000C4F202010A68044642F001020A60096811
:100A600001A801F0010101910199694600F066F9C0
:100A700000F098F94DF683614000C4F21B31A0FBF1
:100A800001014FF0FF3000EB914140F27420002251
:100A9000C2F20000C4F2010240F2E733C0E90021D3
:100AA000C0E902530561856100F070FD054618B18B
:100AB000284606B0B0BD00BF40F27420C2F200006C
:100AC00000F094FD05460028F2D1192000F036F818
:100AD0000F2C0DD8192021460022002500F040F8E7
:100AE00040F25000C2F200000460284606B0B0BDDB
:100AF0000125284606B0B0BD82B0002043F6400173
:100B00000190C4F202014A6842F480424A604A6895
:100B100002F480420192019A00900868002240F09D
:100B20008050086008680F2100F080500090009805
:100B30006FF0010002B000F013B80000002848BFB9
:100B4000704700F01F01012202FA01F11C2202EAA3
:100B5000D0004EF20012CEF2000281507047000029
:100B600010B54EF60C5CCEF2000CDCF80030C3F38E
:100B7000022E8EF00704042C28BF0424BEF10303C8
:100B80004FF0FF3E0EFA04F438BF0023A143994012
:100B90000EFA03F39A43114300F00F0200F1604391
:100BA0000901043A03F564436244002848BF02F196
:100BB0000C03197010BD00004EF60C51CEF200016E
:100BC0000A684FF6FF031A4060F30A2242F0806081
:100BD00040F0FD7008607047002804BF0120704796
:100BE0002DE9F04143F60808C4F202080446D8F89B
:100BF000F8030D4600F00700884207D288F8F85342
:100C0000D8F8F80300F00700A84277D120688107E0
:100C100017D5410705D5D8F8001041F4E051C8F8C0
:100C20000010010705D5D8F8001041F46041C8F85C
:100C30000010D8F80010A26821F0F0011143C8F8A4
:100C40000010C00740D1D8F8F80300F00700A84210
:100C500007D988F8F853D8F8F80300F00700A8423D
:100C60004CD12068410707D5D8F80010E26821F47C
:100C7000E0511143C8F80010000708D5D8F800006B
:100C8000216920F4604040EAC100C8F8000000F08B
:100C90009DF8D8F8001046F24422C1F30311C0F6C3
:100CA0000002515C40F2540220FA01F140F250007F
:100CB000C2F200000068C2F200021160FFF7C2FE3B
:100CC0000020BDE8F08100BF6068811E022907D2C4
:100CD00058F8081C89015CBF0120BDE8F08111E0D3
:100CE000012807D158F8081C89035CBF0120BDE822
:100CF000F08107E058F8081C890703D40120BDE8FB
:100D0000F08100BFD8F8001021F003010843C8F8B3
:100D10000000FFF767FE064641F28837D8F800006A
:100D2000616800F00C00B0EB810F8CD0FFF75AFE29
:100D3000801BB842F2D90320BDE8F0810F22026087
:100D400043F60802C4F20202136803F0030343608F
:100D5000136803F0F0038360136803F4E053C36087
:100D6000D2F800C04FF4E05303EADC030361D2F889
:100D7000F80300F0070008607047000040F25400DC
:100D800043F60801C2F20000C4F2020100680968DB
:100D900046F25422C1F38221C0F60002515CC840E1
:100DA0007047000040F2540043F60801C2F2000010
:100DB000C4F202010068096846F25422C1F34231CC
:100DC000C0F60002515CC8407047000010B543F601
:100DD0000404C4F20204606800F00C0142F2004016
:100DE0000829C0F2F40007D0042918BF10BD41F251
:100DF0000020C0F27A0010BD216801F03F02216896
:100E000023684902C3F3881106D4A1FB0001002323
:100E1000FFF7D6F907E000BF41F20020C0F27A00E8
:100E20004843B0FBF2F021680222C1F3014102EB1A
:100E30004101B0FBF1F010BD002804BF0120704754
:100E40002DE9F04182B00446007843F60006C00761
:100E5000C4F202060CD0B06800F00C00042840F088
:100E600081803068800303D56068002800F06A81C3
:100E7000207880071BD5B06810F00C0F09D0B0683F
:100E800000F00C00082840F087807068400200F1F4
:100E900083803068800703D5E068012840F05281E4
:100EA0003068216920F0F80040EAC1003060207805
:100EB000000713D4207840072AD4A569002D00F03C
:100EC0003C81B06800F00C00082840F0A180012DA2
:100ED00040F01081012002B0BDE8F0816069002877
:100EE00040F20000C4F2472000F07E800121C0F8EB
:100EF000801EFFF777FD0546706F8007DAD4FFF795
:100F000071FD401B0228F7D9032002B0BDE8F08133
:100F1000306C5FEAC0080AD400200190306C40F0C9
:100F200080503064306C00F080500190019847F29E
:100F30000007C4F200073868C00547D4386840F499
:100F400080703860FFF74EFD054600BF3868C00569
:100F50003CD4FFF747FD401B0228F7D9032002B01D
:100F6000BDE8F081B06800F00C00082803D170687B
:100F700040023FF576AF6068B0F5803F07D0B0F52E
:100F8000A02F40F09B80306840F4802030603068B3
:100F900040F4803030609BE0E06800285CD00020A6
:100FA000C4F2472001210160FFF71CFD054600BF88
:100FB000306880073FF574AFFFF714FD401B02282F
:100FC000F6D9032002B0BDE8F08100BFA068012877
:100FD00005D0052854D1306F40F004003067306FE1
:100FE00040F00100306755E00021C0F8801EFFF797
:100FF000F9FC0546706F80077FF55CAFFFF7F2FCE8
:10100000401B0228F6D9032002B0BDE8F08100BFE2
:101010000027C4F2472700203866FFF7E3FC022DC3
:1010200005460DD13068800140F19080FFF7DAFC71
:10103000401B02284FF00300F4D902B0BDE8F08154
:101040003068800179D5FFF7CDFC401B02284FF0B6
:101050000300F5D9F1E700BF0020C4F247200021CA
:101060000160FFF7BFFC0546306880077FF51FAFC2
:10107000FFF7B8FC401B02284FF00300F4D9DCE76F
:10108000316F002821F001013167316F21F0040137
:1010900031677DD0FFF7A6FC054641F2883700BFD7
:1010A000306F800700F18680FFF79CFC401BB84240
:1010B000F6D9032002B0BDE8F08100BF31680028F6
:1010C00021F480313160316821F4802131607BD09E
:1010D000FFF788FC054600BF306880033FF5C8AEC7
:1010E000FFF780FC401B6428F6D9032002B0BDE85E
:1010F000F08100BF7068E16900F480028A4221D16A
:10110000216A00F03F028A421CD147F6C071626A30
:101110000140B1EB821F15D1A16A4FF6FF73C903DD
:10112000994300F44032A1F580318A420AD1E16A44
:1011300000F07060B0EB016F04D1002002B0BDE898
:10114000F08100BF012002B0BDE8F08104F11C0570
:101150002FCD084340EA8210D9034FF6FF72914326
:10116000A1F5803140EA05600843706001203866CF
:10117000FFF738FC044600BF30688001DDD4FFF77C
:1011800031FC001B02284FF00300F5D955E700BFE2
:10119000FFF728FC054641F2883700BF306F800713
:1011A00008D5FFF71FFC401BB8424FF00300F5D9EC
:1011B00043E700BFB8F1000F3FF57FAE306C20F081
:1011C0008050306479E600BFFFF70CFC054600BF95
:1011D000306880037FF54CAEFFF704FC401B6428A9
:1011E0004FF00300F4D928E770B538B10446406ADF
:1011F00030B10020206104F1140007E0012070BD2F
:101200006068B0F5827F03D004F11C00002101600A
:101210000026A66294F8510020B9204684F8506058
:1012200000F03CF8022084F8510094E80F0001F42B
:101230008271056802F4044225F0400505601144FE
:1012400003F400622369114403F00202636911444C
:1012500003F00102A369E569114403F4007211442B
:1012600005F03802256A114405F08002A56A114391
:1012700005F4005211430160626A042101EA13413E
:1012800002F0100211444160C16921F40061C161A2
:101290000120666584F85100304670BD016843F650
:1012A0000000C4F20000814218BF704780B586B0CC
:1012B000002143F630020191C4F20202136900F5E5
:1012C000E63043F480431361136903F480430193D0
:1012D000019B0191136843F002031360126802F04E
:1012E00002020192019A4FF4604201920222CDE97A
:1012F0000221032104910521059101A9FFF796FA26
:1013000006B0BDE8804070472DE9F04184B01D462D
:1013100016460F460446FFF765FB94F85110012965
:101320000ED18046002F4FF0010018BF002E03D1D0
:1013300004B0BDE8F08100BF94F85000012803D14B
:10134000022004B0BDE8F081012084F850000320A1
:10135000002184F8510061652763A686E686A163B3
:10136000A187E187A0682164B0F5004F206861641F
:1013700007D1016821F040010160016841F480411A
:1013800001600168490603D4016841F04001016031
:101390006168731EE268B1FA81F1B3FA83F3490917
:1013A0005B09B2F5006F41EA030139D131B137F879
:1013B000021BC1602763E08E0138E086E08E0028C2
:1013C00070D0681C0BD11AE0216B31F8022BC2607F
:1013D0002163E08E0138E086E08E002862D020682C
:1013E00081688907F0D4FFF7FDFAA0EB0800A84256
:1013F000F2D338E0FFF7F6FAE08E002852D02068EA
:1014000081688907F6D5216B31F8022BC260216310
:10141000E08E0138E086E08E0028F0D142E000BF87
:1014200039B139780173206B01302063E08E0138C7
:10143000E086E08EB0B3681C0BD123E0216B097805
:101440000173206B01302063E08E0138E086E08E6E
:1014500040B3206881688907F0D4FFF7C3FAA0EB96
:101460000800A842F3D3012084F85100002084F83A
:101470005000032004B0BDE8F08100BFFFF7B2FACE
:10148000E08E78B1206881688907F7D5216B0978EB
:101490000173206B01302063E08E0138E086E08E1E
:1014A0000028EFD12046022101222B46CDF80080F2
:1014B00001F080FEE0B1606D40F02000606520200A
:1014C0006065A06838B9002002902068C168029168
:1014D000806802900298012084F85100002084F86E
:1014E0005000606D002818BF012004B0BDE8F081F5
:1014F00040F25400C2F20000006849F68171C1F266
:101500005E61A0FB0101480D4FF47A7148430390DE
:101510006068B0F5827F0BD12046802100222B46E7
:10152000CDF8008001F046FE0028C4D1C9E700BF15
:1015300003980028C5D0039801380390206880687C
:101540000006BED503980028BBD00398013803904D
:10155000206880680006B4D503980028B1D00398AD
:1015600001380390206880680006AAD503980028F7
:10157000A7D0039801380390206880680006D7D46C
:101580009FE700007047000070470000002804BF7C
:101590000120704710B5044690F83D0028B900209E
:1015A00084F83C00204600F01FF8022084F83D003B
:1015B0002068211D01F01AFF012084F8460084F8FC
:1015C0003E0084F83F0084F8400084F8410084F82D
:1015D000420084F8430084F8440084F8450084F80D
:1015E0003D00002010BD00007047000090F83D1045
:1015F00001291CBF01207047022180F83D100068BE
:1016000041F2FF72C168C4F20002904241F0010150
:10161000C1600DDC40F2FF71C4F20001884215DCAC
:10162000B0F1804F2AD040F20041C4F2000123E023
:1016300040F2FF31C4F20101884213DC41F600019F
:10164000C4F20001884219D0002113E040F60001E5
:10165000C4F20001884211D040F60041C4F20001FA
:101660000AE000BF44F20001C4F20101884205D043
:1016700040F20041C4F20101884206D1816801F0C4
:101680000701062904BF00207047016841F00101ED
:1016900001600020704700007047000070B50446EC
:1016A0000068C5680669B10716D515F0020113D0A8
:1016B0006FF002010161012121778069800703D069
:1016C0002046FFF7E9FF05E0204600F08FF82046AE
:1016D00000F08EF800202077700719D515F004006F
:1016E00016D020686FF00401016102212177806922
:1016F00010F4407F04D02046FFF7CEFF06E000BF85
:10170000204600F073F8204600F072F800202077A1
:10171000300717D515F0080014D020686FF00801C5
:10172000016104212177C069800703D02046FFF7BB
:10173000B3FF05E0204600F059F8204600F058F8C5
:1017400000202077F00619D515F0100016D020687B
:101750006FF01001016108212177C06910F4407F0A
:1017600004D02046FFF798FF06E000BF204600F0B7
:101770003DF8204600F03CF800202077F00718BF25
:1017800015F0010002D1300609D412E020686FF094
:1017900001010161204600F02DF8300609D515F051
:1017A000800006D020686FF0800101612046FFF7BD
:1017B000E9FE700609D515F0400006D020686FF0EC
:1017C00040010161204600F01FF8B00658BF70BD0F
:1017D00015F0200008D021686FF0200220460A6131
:1017E000BDE87040FFF7D0BE70BD0000704700003C
:1017F0007047000000680021C4F20101884218BF50
:101800007047FFF7F5B80000704700007047000010
:1018100070470000B0B582B0044600680168C36834
:10182000426901F02F05202D03F0200506D12DB1CE
:10183000204602B0BDE8B04001F0EABE5FEA017C9C
:101840001EBF02F0010E03F4907212EB0E0243D1A0
:10185000226BCD0618D5012A16D113F0100213D031
:10186000002101910168019141680191019940694C
:1018700040063BD4A08DE18DE28D002A18BF88423E
:1018800040F0F28102B0B0BD0A0640F1E78013F0EB
:10189000800200F0E38094F841102129F2D1A16880
:1018A000B1F5805F03D12169002900F06382216ACC
:1018B0004A1C226209784160E18C01390A04E18402
:1018C000E0D1C16821F08001C160C16841F04001F0
:1018D000C16002B0B0BD00BFCA0718BF13F4807268
:1018E00040F0D0804A0700F1D380D8E0E06B016877
:1018F00049688AB2002AC5D0A38D9A42C2D2E18536
:10190000C069B0F5807F00F09D80206850E8030F2B
:10191000216820F4807041E80302DAB1206850E8C1
:10192000030F216820F4807041E8030292B120681F
:1019300050E8030F216820F4807041E803024AB1A7
:10194000206850E8030F216820F4807041E803020A
:10195000002ADAD1206850E8050F216820F0010044
:1019600041E80502BAB3206850E8050F216820F06D
:10197000010041E8050272B3206850E8050F2168B4
:1019800020F0010041E805022AB3206850E8050F65
:10199000216820F0010041E80502002ADAD11AE0AE
:1019A000206850E8050F216820F0400041E805025A
:1019B000DAB1206850E8050F216820F0400041E8C6
:1019C000050292B1206850E8050F216820F0400020
:1019D00041E805024AB1206850E8050F216820F06F
:1019E000400041E80502002ADAD1202084F84200B4
:1019F00000202063206850E8030F216820F01000C9
:101A000041E80302DAB1206850E8030F216820F0B2
:101A1000100041E8030292B1206850E8030F2168EA
:101A200020F0100041E803024AB1206850E8030F9B
:101A3000216820F0100041E80302002ADAD1E06BAF
:101A4000FEF786FE02206063A08DE18D401A81B210
:101A5000204602B0BDE8B040FFF7D8BE49067FF58A
:101A600011AF13F040013FF40DAFC16821F0400108
:101A7000C1602021204684F8411002B0BDE8B0408A
:101A800000F0ACBA626C42F0010262644A0706D50B
:101A9000BEF1000F03D0626C42F0020262648A075A
:101AA00006D5BEF1000F03D0626C42F004026264FE
:101AB000BCF1000F06D55EEA050203D0626C42F06D
:101AC00008026264626C002A3FF4DCAE890604D529
:101AD0001DB1204601F09CFD20684069616C00F05A
:101AE000400001F00801401800F0B680206850E87E
:101AF000030F216820F4907041E80302BAB3206814
:101B000050E8030F216820F4907041E8030272B39B
:101B1000206850E8030F216820F4907041E8030228
:101B20002AB3206850E8030F216820F4907041E840
:101B30000302002ADAD11AE0206850E8050F216874
:101B400020F0010041E80502DAB1206850E8050FF5
:101B5000216820F0010041E8050292B1206850E8B8
:101B6000050F216820F0010041E805024AB1206814
:101B700050E8050F216820F0010041E80502002A25
:101B8000DAD1206B012824D1206850E8030F2168A6
:101B900020F0100041E80302DAB1206850E8030F9A
:101BA000216820F0100041E8030292B1206850E85B
:101BB000030F216820F0100041E803024AB12068B9
:101BC00050E8030F216820F0100041E80302002ACA
:101BD000DAD1202084F84200002020632068406988
:101BE000400640F1C180206850E8050F216820F0D0
:101BF000400041E80502DAB1206850E8050F21688D
:101C000020F0400041E8050292B1206850E8050F3D
:101C1000216820F0400041E805024AB1206850E800
:101C2000050F216820F0400041E80502002ADAD1C2
:101C3000E06B002800F0988043F20561C0F60001D7
:101C40000165FEF7CDFD00283FF41CAEE06B016D91
:101C500002B0BDE8B04008472046FFF7D9FD00209C
:101C6000606402B0B0BD00BF401A00BF216851E8F7
:101C7000031F226821F4907142E80313BBB321686B
:101C800051E8031F226821F4907142E8031373B3F3
:101C9000216851E8031F226821F4907142E8031380
:101CA0002BB3216851E8031F226821F4907142E8A8
:101CB0000313002BDAD11AE0216851E8051F2268CE
:101CC00021F0010142E80513DBB1216851E8051F4D
:101CD000226821F0010142E8051393B1216851E81F
:101CE000051F226821F0010142E805134BB121686C
:101CF00051E8051F226821F0010142E80513002B7D
:101D0000DAD1202184F8421000212163216851E8B2
:101D1000031F226821F0100142E80313DBB12168A0
:101D200051E8031F226821F0100142E8031393B128
:101D3000216851E8031F226821F0100142E80313D3
:101D40004BB1216851E8031F226821F0100142E8DD
:101D50000313002BDAD1022281B22046626302B063
:101D6000BDE8B040FFF752BD204602B0BDE8B0402C
:101D7000FFF74EBD216A31F8022B6FF35F224260FC
:101D8000216299E5002804BF0120704710B5044680
:101D900090F8410028B9002084F84000204600F067
:101DA00021F8242084F841002068C16821F4005102
:101DB000C160204601F0ACFC2068016921F490412B
:101DC0000161416921F02A014161C16841F400517A
:101DD000C16000202021606484F8411084F8421022
:101DE000606310BD016841F20000C4F2010081424D
:101DF00018BF704780B586B0002143F630020191CC
:101E0000C4F20202536900F5704043F010035361BD
:101E1000536903F010030193019B0191136843F090
:101E200001031360126802F001020192019A4FF45B
:101E3000C06201920222CDE902210321049107210F
:101E4000059101A9FEF7F2FC252005210022FEF7ED
:101E500087FE2520FEF772FE06B0BDE88040704781
:101E6000704700002DE9F041044690F84100202819
:101E70001CBF0220BDE8F0810D4600294FF0010093
:101E800000F0AA801646002A08BFBDE8F0810020B5
:101E900060642120984684F84100FEF7A3FDA684E3
:101EA000E684A1680646B1F5805F02D1206900286A
:101EB00062D02F460025E08C002861D018F1010087
:101EC00018D0B8F1000F37D1216808E017F8010BDE
:101ED0004860E08C0138E084E08C002851D008682C
:101EE000000673D5002FF1D135F8020B00276FF3F0
:101EF0005F20EDE7216802E00868000609D4086861
:101F0000000606D4086800065CBF08685FEA006047
:101F1000F2D51FB117F8010B05E000BF35F8020B31
:101F200000276FF35F204860E08C0138E084E08C8C
:101F30000028E4D125E000BF216800BF0868000642
:101F400008D4FEF74FFD801B404541D82168C86882
:101F5000F4E700BF17B117F8010B04E035F8020BE6
:101F600000276FF35F204860E08C0138E084E08C4C
:101F70000028E3D105E000BF0027E08C00289DD1B8
:101F80002168086840061FD4B8F1000F1ED018F170
:101F900001000FD10868400616D40868400613D423
:101FA0000868400610D4086840064FF00000F1D5DC
:101FB0000FE000BFFEF716FD801B404508D82068E3
:101FC000C16800684006F5D5002002E0FEF70AFD72
:101FD0000320202184F84110BDE8F0817047000003
:101FE000FEE700002DE9F04F81B00FF6206004F00D
:101FF000FDF840F60044C4F2020420464FF480711C
:102000000122FEF7E9FCA4F5006528464FF40061C3
:1020100000220027FEF7E0FC0A204FF00A0AFEF734
:10202000F1FB28464FF400610122FEF7D5FC40F297
:10203000600040F24011C2F20000C0F2E011016005
:10204000E0208DF8030028464FF480510022FEF76F
:10205000C3FC20464FF480710022FEF7BDFC40F225
:102060001C26C2F200060DF10301304601220123B5
:10207000FFF74AF920464FF480710122FEF7ACFCCD
:1020800028464FF4805101228DF80370FEF7A4FC1E
:1020900020464FF480710022FEF79EFC0DF10301F3
:1020A000304601220123FFF72FF920464FF48071BB
:1020B0000122FEF791FC4FF0030928464FF48051AE
:1020C00001228DF80390FEF787FC20464FF48071C3
:1020D0000022FEF781FC0DF10301304601220123AD
:1020E000FFF712F920464FF480710122FEF774FCCD
:1020F0004FF0090828464FF4805101228DF80380E3
:10210000FEF76AFC20464FF480710022FEF764FC63
:102110000DF10301304601220123FFF7F5F82046B7
:102120004FF480710122FEF757FC082728464FF430
:10213000805101228DF80370FEF74EFC20464FF4CB
:1021400080710022FEF748FC0DF1030130460122A8
:102150000123FFF7D9F820464FF480710122FEF7E2
:102160003BFC4FF0160B28464FF4805101228DF8AE
:1021700003B0FEF731FC20464FF480710022FEF7D9
:102180002BFC0DF10301304601220123FFF7BCF8BF
:1021900020464FF480710122FEF71EFC28464FF4C2
:1021A000805101228DF803A0FEF716FC20464FF463
:1021B00080710022FEF710FC0DF103013046012270
:1021C0000123FFF7A1F820464FF480710122FEF7AA
:1021D00003FC3F208DF8030028464FF48051012274
:1021E000FEF7FAFB20464FF480710022FEF7F4FB65
:1021F0000DF10301304601220123FFF785F8204647
:102200004FF480710122FEF7E7FB78208DF8030080
:1022100028464FF480510122FEF7DEFB20464FF4A2
:1022200080710022FEF7D8FB0DF103013046012238
:102230000123FFF769F820464FF480710122FEF771
:10224000CBFB4C208DF8030028464FF4805101222F
:10225000FEF7C2FB20464FF480710022FEF7BCFB64
:102260000DF10301304601220123FFF74DF820460E
:102270004FF480710122FEF7AFFB28464FF48051E6
:1022800001228DF80380FEF7A7FB20464FF48071F2
:102290000022FEF7A1FB0DF10301304601220123CC
:1022A000FFF732F820464FF480710122FEF794FBCD
:1022B00028464FF4805101228DF803A0FEF78CFBD5
:1022C00020464FF480710022FEF786FB0DF10301DA
:1022D000304601220123FFF717F820464FF48071A2
:1022E0000122FEF779FB28464FF4805101228DF838
:1022F0000370FEF771FB20464FF480710022FEF759
:102300006BFB0DF10301304601220123FEF7FCFFB8
:1023100020464FF480710122FEF75EFB28464FF401
:10232000805101228DF803B0FEF756FB20464FF492
:1023300080710022FEF750FB0DF1030130460122AF
:102340000123FEF7E1FF20464FF480710122FEF7E2
:1023500043FB1A208DF8030028464FF480510122D8
:10236000FEF73AFB20464FF480710022FEF734FB63
:102370000DF10301304601220123FEF7C5FF20467F
:102380004FF480710122FEF727FB4FF00F0A284619
:102390004FF4805101228DF803A0FEF71DFB20466B
:1023A0004FF480710022FEF717FB0DF10301304658
:1023B00001220123FEF7A8FF20464FF4807101227D
:1023C000FEF70AFBE1208DF8030028464FF4805108
:1023D0000022FEF701FB20464FF480710022FEF739
:1023E000FBFA0DF10301304601220123FEF78CFFB9
:1023F00020464FF480710122FEF7EEFA00272846AE
:102400004FF4805101228DF80370FEF7E5FA204663
:102410004FF480710022FEF7DFFA0DF10301304620
:1024200001220123FEF770FF20464FF48071012244
:10243000FEF7D2FA28464FF4805101228DF803B0FE
:10244000FEF7CAFA20464FF480710022FEF7C4FA64
:102450000DF10301304601220123FEF755FF20460E
:102460004FF480710122FEF7B7FA19208DF80300AE
:1024700028464FF480510122FEF7AEFA20464FF471
:1024800080710022FEF7A8FA0DF103013046012207
:102490000123FEF739FF20464FF480710122FEF739
:1024A0009BFA28464FF4805101228DF80390FEF7E5
:1024B00093FA20464FF480710022FEF78DFA0DF159
:1024C0000301304601220123FEF71EFF20464FF490
:1024D00080710122FEF780FA28464FF480510122D4
:1024E0008DF803A0FEF778FA20464FF480710022A1
:1024F000FEF772FA0DF10301304601220123FEF7C7
:1025000003FF20464FF480710122FEF765FA052093
:102510008DF8030028464FF480510122FEF75CFA43
:1025200020464FF480710022FEF756FA0DF10301A8
:10253000304601220123FEF7E7FE20464FF480716A
:102540000122FEF749FA32208DF8030028464FF4A5
:1025500080510122FEF740FA20464FF4807100229C
:10256000FEF73AFA0DF10301304601220123FEF78E
:10257000CBFE20464FF480710122FEF72DFA452054
:102580008DF8030028464FF480510122FEF724FA0B
:1025900020464FF480710022FEF71EFA0DF1030170
:1025A000304601220123FEF7AFFE20464FF4807132
:1025B0000122FEF711FA46208DF8030028464FF459
:1025C00080510122FEF708FA20464FF48071002264
:1025D000FEF702FA0DF10301304601220123FEF756
:1025E00093FE20464FF480710122FEF7F5F9042096
:1025F0008DF8030028464FF480510122FEF7ECF9D4
:1026000020464FF480710022FEF7E6F90DF1030138
:10261000304601220123FEF777FE20464FF48071F9
:102620000122FEF7D9F90E208DF8030028464FF459
:1026300080510122FEF7D0F920464FF4807100222C
:10264000FEF7CAF90DF10301304601220123FEF71E
:102650005BFE20464FF480710122FEF7BDF90D208C
:102660008DF8030028464FF480510122FEF7B4F99B
:1026700020464FF480710022FEF7AEF90DF1030100
:10268000304601220123FEF73FFE20464FF48071C1
:102690000122FEF7A1F935208DF8030028464FF4FA
:1026A00080510122FEF798F920464FF480710022F4
:1026B000FEF792F90DF10301304601220123FEF7E6
:1026C00023FE20464FF480710122FEF785F9372062
:1026D0008DF8030028464FF480510122FEF77CF963
:1026E00020464FF480710022FEF776F90DF10301C8
:1026F000304601220123FEF707FE20464FF4807189
:102700000122FEF769F928464FF4805101228DF825
:1027100003A0FEF761F920464FF480710022FEF716
:102720005BF90DF10301304601220123FEF7ECFDB8
:1027300020464FF480710122FEF74EF9C0208DF83B
:10274000030028464FF480510022FEF745F9204649
:102750004FF480710022FEF73FF90DF1030130467E
:1027600001220123FEF7D0FD20464FF480710122A3
:10277000FEF732F917208DF8030028464FF48051F8
:102780000122FEF729F920464FF480710022FEF75E
:1027900023F90DF10301304601220123FEF7B4FDB8
:1027A00020464FF480710122FEF716F915208DF8AE
:1027B000030028464FF480510122FEF70DF9204610
:1027C0004FF480710022FEF707F90DF10301304646
:1027D00001220123FEF798FD20464FF4807101226B
:1027E000FEF7FAF8C1208DF8030028464FF4805117
:1027F0000022FEF7F1F820464FF480710022FEF728
:10280000EBF80DF10301304601220123FEF77CFDB8
:1028100020464FF480710122FEF7DEF841208DF84A
:10282000030028464FF480510122FEF7D5F82046D8
:102830004FF480710022FEF7CFF80DF1030130460E
:1028400001220123FEF760FD20464FF48071012232
:10285000FEF7C2F8C5208DF8030028464FF48051DA
:102860000022FEF7B9F820464FF480710022FEF7EF
:10287000B3F80DF10301304601220123FEF744FDB8
:1028800020464FF480710122FEF7A6F828464FF447
:10289000805101228DF803704FF00008FEF79CF87C
:1028A00020464FF480710022FEF796F80DF10301E7
:1028B000304601220123FEF727FD20464FF48071A8
:1028C0000122FEF789F812208DF8030028464FF404
:1028D00080510122FEF780F820464FF480710022DB
:1028E000FEF77AF80DF10301304601220123FEF7CD
:1028F0000BFD20464FF480710122FEF76DF8802712
:1029000028464FF4805101228DF80370FEF764F8D9
:1029100020464FF480710022FEF75EF80DF10301AE
:10292000304601220123FEF7EFFC20464FF4807170
:102930000122FEF751F836208DF8030028464FF4A7
:1029400080510022FEF748F820464FF480710022A3
:10295000FEF742F80DF10301304601220123FEF794
:10296000D3FC20464FF480710122FEF735F8482051
:102970008DF8030028464FF480510122FEF72CF811
:1029800020464FF480710022FEF726F80DF1030176
:10299000304601220123FEF7B7FC20464FF4807138
:1029A0000122FEF719F83A208DF8030028464FF46B
:1029B00080510022FEF710F820464FF4807100226B
:1029C000FEF70AF80DF10301304601220123FEF75C
:1029D0009BFC20464FF480710122FDF7FDFF66202D
:1029E0008DF8030028464FF480510122FDF7F4FFD3
:1029F00020464FF480710022FDF7EEFF0DF1030138
:102A0000304601220123FEF77FFC20464FF48071FF
:102A10000122FDF7E1FFB0208DF8030028464FF4B6
:102A200080510022FDF7D8FF20464FF4807100222C
:102A3000FDF7D2FF0DF10301304601220123FEF71D
:102A400063FC20464FF480710122FDF7C5FF284644
:102A50004FF4805101228DF80370FDF7BDFF204631
:102A60004FF480710022FDF7B7FF0DF103013046EE
:102A700001220123FEF748FC20464FF48071012219
:102A8000FDF7AAFFB1208DF8030028464FF48051CE
:102A90000022FDF7A1FF20464FF480710022FDF7D0
:102AA0009BFF0DF10301304601220123FEF72CFCB0
:102AB00020464FF480710122FDF78EFFA0208DF893
:102AC000030028464FF480510122FDF785FF204680
:102AD0004FF480710022FDF77FFF0DF103013046B6
:102AE00001220123FEF710FC20464FF480710122E1
:102AF000FDF772FFB4208DF8030028464FF4805193
:102B00000022FDF769FF20464FF480710022FDF797
:102B100063FF0DF10301304601220123FEF7F4FBB0
:102B200020464FF480710122FDF756FF0227284608
:102B30004FF4805101228DF80370FDF74DFF2046C0
:102B40004FF480710022FDF747FF0DF1030130467D
:102B500001220123FEF7D8FB20464FF480710122A9
:102B6000FDF73AFFB6208DF8030028464FF4805158
:102B70000022FDF731FF20464FF480710022FDF75F
:102B80002BFF0DF10301304601220123FEF7BCFBB0
:102B900020464FF480710122FDF71EFF28464FF4B6
:102BA000805101228DF80370FDF716FF20464FF487
:102BB00080710022FDF710FF0DF103013046012264
:102BC0000123FEF7A1FB20464FF480710122FDF79F
:102BD00003FF28464FF4805101228DF80370FDF762
:102BE000FBFE20464FF480710022FDF7F5FE0DF14B
:102BF0000301304601220123FEF786FB20464FF4F5
:102C000080710122FDF7E8FEE9208DF803002846D7
:102C10004FF480510022FDF7DFFE20464FF4807113
:102C20000022FDF7D9FE0DF10301304601220123F8
:102C3000FEF76AFB20464FF480710122FDF7CCFEBF
:102C400028464FF4805101228DF80380FDF7C4FE21
:102C500020464FF480710022FDF7BEFE0DF1030106
:102C6000304601220123FEF74FFB20464FF48071CE
:102C70000122FDF7B1FEF7208DF8030028464FF43E
:102C800080510022FDF7A8FE20464FF480710022FB
:102C9000FDF7A2FE0DF10301304601220123FEF7EC
:102CA00033FB20464FF480710122FDF795FEA920E9
:102CB0008DF8030028464FF480510122FDF78CFE69
:102CC00020464FF480710022FDF786FE0DF10301CE
:102CD000304601220123FEF717FB20464FF4807196
:102CE0000122FDF779FE51208DF8030028464FF4AC
:102CF00080510122FDF770FE20464FF480710022C2
:102D0000FDF76AFE0DF10301304601220123FEF7B3
:102D1000FBFA20464FF480710122FDF75DFE2C2066
:102D20008DF8030028464FF480510122FDF754FE30
:102D300020464FF480710022FDF74EFE0DF1030195
:102D4000304601220123FEF7DFFA20464FF480715E
:102D50000122FDF741FE82208DF8030028464FF442
:102D600080510122FDF738FE20464FF48071002289
:102D7000FDF732FE0DF10301304601220123FEF77B
:102D8000C3FA20464FF480710122FDF725FE112081
:102D90008DF8030028464FF480510022FDF71CFEF9
:102DA00020464FF480710022FDF716FE0DF103015D
:102DB000304601220123FEF7A7FA20464FF4807126
:102DC0000122FDF709FE7820FDF71CFD29208DF872
:102DD000030028464FF480510022FDF7FDFD2046F8
:102DE0004FF480710022FDF7F7FD0DF1030130462D
:102DF00001220123FEF788FA20464FF48071012258
:102E0000FDF7EAFD01B0BDE8F08F00BF4C43442060
:102E1000696E697469616C2073746172740000007A
:102E200070B5ACB046F21020C0F6000090E81E501D
:102E3000229400F12004D0E906561F91209221939C
:102E40001ECC006BCDF88CC00DF19C0C8CE81E00E4
:102E500033492B9032A0CDE92556061D12914ECE56
:102E6000159300F12403CDF890E000F1140E046AEC
:102E7000139114920ECB006BCDE91A4135491E9087
:102E800034A01696061D9EE82050CDE91C2305911E
:102E90004ECECDE918CE00F1140E046A089300F16D
:102EA0002403006B069107920ECB119036A0CDE95A
:102EB0000F23CDE90D41C268D0E901101795CDE986
:102EC000030231489EE82050CDE9010101A809968E
:102ED0000A95CDE90BCE00F045FE40F2BC04C2F2EB
:102EE0000004206043F23950C0F600001FAA002100
:102EF00000F072FE606043F27150C0F6000012AA4A
:102F0000002100F069FEA06043F2FD50C0F6000011
:102F100005AA002100F060FEE0602CB070BD00BF8B
:102F200062620008000000000000000000000000D5
:102F300000000000000400002A0000000000000063
:102F40000000000000000000000000000000000081
:102F5000000000006862000800000000000000009F
:102F60000000000000000000000400002900000034
:102F70000000000000000000000000000000000051
:102F800000000000000000006E6200080000000069
:102F900000000000000000002DE9F04F87B0002481
:102FA00043F6300006940194C4F202000168002642
:102FB00041F0800101600168C4F2020601F0800165
:102FC0000191019901940168002241F00101016021
:102FD000016801F00101019101990194016841F03A
:102FE00002010160016801F002010191019901945F
:102FF000016841F008010160016801F008010191D8
:1030000001990194016841F0100101600068F0210C
:1030100000F01000019001983046FDF7DDFC06F548
:10302000806528464FF4C05100224FF4C05AFDF786
:10303000D3FC06F5406840464FF4807100224FF4FF
:103040008079FDF7C9FCC02002AF02904FF0010B60
:1030500030463946CDE903B40594FDF7E7FB30204F
:10306000CDE9020430463946CDE90444FDF7DEFBE4
:103070004820CDE9020406F5805039460494FDF756
:10308000D5FB402002904FF48810CDE90304304670
:103090003946FDF7CBFB28463946CDE902ABCDE9F1
:1030A0000444FDF7C3FB40463946CDE9029BCDE918
:1030B0000444FDF7BBFB07B0BDE8F08F80B540F2DC
:1030C0001C2043F60001C2F20000C4F200014FF4DC
:1030D000827200234FF4007C80E80E000A21C0E9D0
:1030E0000333C0E9053CC361C0E90833C0E90A31D4
:1030F000FEF77AF8002808BF80BDBDE88040FDF7E4
:1031000087B9000080B540F2BC2041F20001C2F254
:103110000000C4F2010100234FF00C0C4FF4E13227
:1031200080E80E00C0E90333C0E905C3C361FEF7C0
:1031300029FE002808BF80BDBDE88040FDF768B9C2
:10314000FEE70000FEE700000000000000000000B5
:10315000EFF30980BFF36F8F154B1A681EF0100F45
:1031600008BF20ED108A20E9F04F10602DE909001A
:103170004FF0500080F31188BFF34F8FBFF36F8F74
:1031800001F080FF4FF0000080F31188BDE80900D6
:1031900019680868B0E8F04F1EF0100F08BFB0ECD7
:1031A000108A80F30988BFF36F8F704700BF00BF9C
:1031B000CC0000202DE9F04381B0089C98461546CC
:1031C0000E468146FDF70EFC201A00EB0804FDF7C1
:1031D00009FC40F25401C2F200010968C1F3CB318D
:1031E00061430091D9F800108A683240921BB2FA0C
:1031F00082F25209AA423DD0074618F1010031D0AF
:10320000FDF7F0FBC01BA04238D2009800990028BF
:10321000A1F101010091D9F80010896808BF0446A6
:1032200001EA0600801BB0FA80F04009A842E7D10D
:1032300020E000BF88683040801BB0FA80F0400971
:10324000A84217D088683040801BB0FA80F040094F
:10325000A8420FD088683040801BB0FA80F0400947
:10326000A84207D088683040801BB0FA80F040093F
:10327000A842DFD1002001B0BDE8F083D9E9000108
:103280004268B1F5827F22F0E00242600BD1D9F8AA
:103290000810B1F5004F02D0B1F5806F03D101687D
:1032A00021F040010160D9F82810B1F5005F07D185
:1032B000016821F400510160016841F4005101608E
:1032C000012089F85100002089F85000032001B046
:1032D000BDE8F083000000000000000000000000D6
:1032E000074B19680868B0E8F04F80F30988BFF30E
:1032F0006F8F4FF0000080F31188704700BF00BF50
:10330000CC00002080B54EF21000CEF20000006824
:1033100002F04CFC012808BF80BDBDE8804001F0F0
:10332000FDBF0000B0B592B0002443F64000CDE9E7
:103330000A44CDE908440594CDE90344CDE90144AC
:103340000094C4F202000168022541F0805101603E
:10335000006800F080500090009847F20000009450
:10336000C4F20000016841F4804101600068A821B6
:1033700000F4804000900098012006904FF48030C7
:1033800007904FF480000D9004200E90119006A835
:103390000C95CDE90F15FDF74FFD18B172B600BFC2
:1033A000FEE700BF0F20CDE901054FF4A0500490C7
:1033B0004FF48050059001A805210394FDF70CFC03
:1033C00010B172B6FEE700BF12B0B0BD4EF6885025
:1033D000CEF20000016841F4700101607047000006
:1033E00040F27420C2F20000FEF758B910B540F662
:1033F000FF3E0368C4F2000E40F2004C7045C4F278
:10340000010C27DCB0F1804F31D040F20042C4F211
:10341000000290422BD040F60002C4F2000290421B
:1034200025D041F6FF72C4F20002904229DC7045BB
:103430003CDCB0F1804F5FD040F20042C4F20002A9
:10344000904259D040F60002C4F20002904253D09C
:1034500056E000BF40F60042C4F20002904206D09F
:10346000604504D00022C4F201029042D9D14A68DA
:1034700023F07003134341F6FF72C4F2000290423E
:10348000D5DD43F6FF72C4F20102904222DC42F223
:103490000002C4F2000290422ED00022C4F20102C7
:1034A000904229D0604527D02AE000BF40F6004274
:1034B000C4F2000290421FD041F60002C4F20002A2
:1034C000904219D041F60042C4F20002904213D05B
:1034D00016E000BF44F20002C4F2010290420BD099
:1034E00044F60002C4F20102904205D044F20042C8
:1034F000C4F20102904203D1CA6823F4407313431B
:1035000023F080024B69D1F800E08C681A43026016
:10351000C46240F48062C0F828E0624504BF0969D3
:103520000163012141610169C90708BF10BD01693B
:1035300021F00101016110BDFCF7CEFE012806D18A
:10354000032000F0CDFAFCF7C7FE0128F8D002A452
:10355000204602F04BFEFBE74572726F7220696EE7
:103560002062616C6C206D6F766521212100000066
:1035700041F2000AC4F2020A0120AAF5805B0FF2B0
:1035800054080FF2680900BF80F00105C2B2584626
:103590008021FDF721FA00F027FA064600F024FA10
:1035A000074650460821FDF711FA044650464021CF
:1035B000FDF70CFA02464046214602F0E1FCF1B26A
:1035C000FAB2484602F0DCFC012000F089FA2846F5
:1035D000DAE700BF427574746F6E204B30202564AB
:1035E000204B31202564200A0000000058203A209A
:1035F00025642C2059203A2025640A002C2000F054
:103600006FFAFBE7806B0021C185C184FEF700B92A
:1036100081B090F84210222921D183680246B3F587
:10362000805F09D152F8281F52F8183C002B63D054
:1036300003685B680AE000BF52F8281F13B90369EA
:10364000002BF5D003685B6803F07F030B701168F3
:1036500001311160C18D01390A04C18502D001B068
:10366000704700BF0168CA6822F02002CA60CA68B9
:1036700022F48072CA604A6922F001024A61202164
:1036800080F8421000214163026B012A3CD10163A2
:10369000016851E8031F026821F0100142E803139A
:1036A000DBB1016851E8031F026821F0100142E814
:1036B000031393B1016851E8031F026821F0100160
:1036C00042E803134BB1016851E8031F026821F07F
:1036D000100142E80313002BDAD101680A68D20610
:1036E00006D5002200920A6800924968009100996C
:1036F000818D01B0FEF78AB8026852686FF35F22CD
:1037000021F8022B8162A5E701B0FEF7A9BB0000FA
:1037100010B504460068D4E902C22369016921F4A6
:10372000405111430161626943EA0C01E3691143AD
:10373000C268194349F20C639A431143C16041695D
:10374000A26921F4407141F20043114340F48062C8
:10375000C4F201039A42416102D1FDF723FB01E06B
:10376000FDF70CFBE16963681922B1F5004FA0FB7E
:10377000020123D15A00DB0FFCF722FD48F21F5152
:10378000C5F2EB11A0FB01235A094FF69C73C0F65A
:10379000FF7303F1805302FB0300322303EBC000ED
:1037A000A0FB01014FF4F87000EA111000EB0210C9
:1037B000C1F3421108442168886010BD9A009B0F34
:1037C000FCF7FEFC48F21F51C5F2EB11A0FB0123F0
:1037D0005A094FF69C73C0F6FF7302FB03003223B5
:1037E00003EB0010A0FB0101F02000EA511000EBF8
:1037F0000210C1F3431108442168886010BD000025
:1038000040F2BC20C2F20000FEF704B8FEE7000060
:103810002DE9F041ADF5407D1F4640F26003C2F254
:10382000000315461A88904280F2B6805B88994260
:1038300080F2B2802E189642C8BF151A7A189A42A2
:10384000C8BF5F1A4219CB19013A013BC69C92B21C
:103850009BB280B289B200F08BFFF820FC214FF6BA
:10386000005300EA142001EAD401E200CFF6FF730E
:103870006E4600BFF418303384F8000384F8011357
:1038800084F8022384F8030384F8041384F80523DE
:1038900084F8060384F8071384F8082384F80903DE
:1038A00084F80A1384F80B2384F80C0384F80D13AE
:1038B00084F80E2384F80F0384F8101384F811237E
:1038C00084F8120384F8131384F8142384F815037E
:1038D00084F8161384F8172384F8180384F819134E
:1038E00084F81A2384F81B0384F81C1384F81D231E
:1038F00084F81E0384F81F1384F8202384F821031E
:1039000084F8221384F8232384F8240384F82513ED
:1039100084F8262384F8270384F8281384F82923BD
:1039200084F82A0384F82B1384F82C2384F82D03BD
:1039300084F82E1384F82F239CD140F60048C4F25B
:103940000208A8F500604FF48051012217FB05F72B
:10395000FDF742F840464FF480710022FDF73CF835
:10396000A7B140F21C24C2F200046D464FF48076E9
:10397000B7F5807F38BF3E4606EB46022046294613
:103980004FF0FF33FDF7C0FCBF1BEFD140464FF4B3
:1039900080710122FDF720F80DF5407DBDE8F08132
:1039A00080B582B040F26001C2F20001B1F900209E
:1039B000B1F90230844600200021CDF800C0FFF7A5
:1039C00027FF02B080BD000080B582B0019040F2B8
:1039D000BC20C2F2000001A901224FF6FF73FEF7DE
:1039E00041FA019802B080BD10B540F2D414C2F281
:1039F00000042046FCF7FEFD20461421FCF77AFD6A
:103A00002046FCF773FD80B210BD0000FCF7FEFFFE
:103A1000FFF788FCFFF7C0FAFFF774FBFFF74EFBD8
:103A200012A002F0E3FBFEF7DDFA19A002F0DEFBC4
:103A30004FF47A70FCF7E6FE1BA002F0D7FB0120E2
:103A400000F048FF1DA002F0D1FB4FF6FF70FFF71A
:103A5000A7FF1EA002F094FAFCF7DEFC00F050F87D
:103A6000FFF7DEF900F060F8FEE700BF5350492091
:103A70005553415254204750494F20696E6974692B
:103A8000616C207375636365737366756C212100C7
:103A90004C434420696E697469616C20737563637B
:103AA00065737366756C000053657474696E672086
:103AB000526F746174696F6E212100004C43442081
:103AC0005465737420537461727400004C43442035
:103AD0005465737420636F6D706C6574650A2000A3
:103AE000EFF3058100291CBF6FF005007047002827
:103AF00004BF0020704780B501F05CF9002080BD54
:103B0000EFF3058000281CBF6FF00500704740F2FE
:103B1000D010C2F200000168002911BF4FF0FF3041
:103B2000012101600020704710B5EFF305800028E7
:103B30001CBF6FF0050010BD40F2D010C2F20000B3
:103B4000016801291CBF4FF0FF3010BD4EF61F5118
:103B5000CEF2000100240C700221016001F0F4F9A2
:103B6000204610BD70B5EFF3058109B1002070BD8E
:103B7000044688B160680107F8D4D4E9021239B16B
:103B8000502AF3D3C0071BD1012001F017FC06E037
:103B9000002AEBD1C00717D1012001F0D7FB054661
:103BA0000026002DE2D0002C14BF216800212846F9
:103BB00001F07EF8002E18BF45F00105284670BDC3
:103BC000042001F0FBFB02E0042001F0BFFB0546EE
:103BD0000126002DE7D1C9E72DE9F04184B00B465D
:103BE00000240394EFF30581E8B3E1BB62B3D2F89C
:103BF00018E0BEF1000F08BF4FF0180EBEF1380FED
:103C000031D81179C9072ED15769D2E902864FEA16
:103C1000970C1168002F654608BF4FF47A65B8F11C
:103C2000000F25D05C2E1ED31269002A18BF002F6A
:103C300019D0CDE900E26246CDF8088001F07AFFA4
:103C400004B0BDE8F08100BF4FF47A654FF0180E64
:103C5000002103AFAAB2CDE900E701F03BFF0399D1
:103C6000012808BF0C46204604B0BDE8F08100BF23
:103C7000002EF8D11269002AF5D1EAE72DE9F041CA
:103C800040F2CC06C2F200060446C16A3068C26A3D
:103C9000A0A002F075F900F051FFF06840F2F43591
:103CA0000130F0603068C2F2000558B13069002878
:103CB00040F007813068E16AC06A884298BF34608A
:103CC000FFE000BF3460F068012840F0FA80284629
:103CD00000F0DAFE05F1140000F0D6FE05F1280030
:103CE00000F0D2FE05F13C0000F0CEFE05F15000E0
:103CF00000F0CAFE05F1640000F0C6FE05F1780090
:103D000000F0C2FE05F18C0000F0BEFE05F1A0003F
:103D100000F0BAFE05F1B40000F0B6FE05F1C800EF
:103D200000F0B2FE05F1DC0000F0AEFE05F1F0009F
:103D300000F0AAFE05F5827000F0A6FE05F58C7075
:103D400000F0A2FE05F5967000F09EFE05F5A0704D
:103D500000F09AFE05F5AA7000F096FE05F5B47025
:103D600000F092FE05F5BE7000F08EFE05F5C870FD
:103D700000F08AFE05F5D27000F086FE05F5DC70D5
:103D800000F082FE05F5E67000F07EFE05F5F070AD
:103D900000F07AFE05F5FA7000F076FE05F5027087
:103DA00000F072FE05F5077000F06EFE05F50C7070
:103DB00000F06AFE05F5117000F066FE05F516705C
:103DC00000F062FE05F51B7000F05EFE05F5207048
:103DD00000F05AFE05F5257000F056FE05F52A7034
:103DE00000F052FE05F52F7000F04EFE05F5347020
:103DF00000F04AFE05F5397000F046FE05F53E700C
:103E000000F042FE05F5437000F03EFE05F54870F7
:103E100000F03AFE05F54D7000F036FE05F55270E3
:103E200000F032FE05F5577000F02EFE05F55C70CF
:103E300000F02AFE05F5617000F026FE05F56670BB
:103E400000F022FE05F56B7000F01EFE05F57070A7
:103E500000F01AFE05F5757000F016FE05F57A7093
:103E600000F012FE05F57F7000F00EFE05F5826091
:103E700000F00AFE05F2244000F006FE05F587601A
:103E800000F002FE05F24C4000F0FEFD40F2A818E2
:103E9000C2F20008404600F0F7FD08F1140738466A
:103EA00000F0F2FD06F1640000F0EEFD06F13C00CA
:103EB00000F0EAFD06F1500000F0E6FDC6F81C80B7
:103EC00037627068716A421CE06A7260884262649C
:103ED00088BF706200EB800005EB8000211D00F0C0
:103EE00015FE00F04FFE306988B13068E16AC06AA3
:103EF000884228BFBDE8F0814EF60450CEF20000A3
:103F00004FF080510160BFF34F8FBFF36F8FBDE85B
:103F1000F08100BF7072764164644E6577546173BE
:103F20006B546F52656164794C697374204E657788
:103F300020256C752C2043757220256C750A0000B5
:103F400040F2CC0540F2F4364EF60458C2F20005B9
:103F5000C2F20006CEF200084FF0805703E000BF27
:103F6000204600F027FEA868D0B100F0E7FDA86C5D
:103F7000C468201D00F05AFDE8680138E860A868B0
:103F80000138A86000F0FEFD94F859000228EAD03C
:103F90000128E5D070B9206B00F00CFEE0E700BF0F
:103FA00030680228DFD3C8F80070BFF34F8FBFF32B
:103FB0006F8FD8E74FF0500080F31188BFF36F8FF9
:103FC000BFF34F8FFEE700002DE9F0470A9C8246C1
:103FD000206B16460F46DDE908599100A522984648
:103FE000FCF731F9206B002F00EB8600A0F10400F4
:103FF00020F0070656D0387884F834003878002846
:104000004BD0787884F835007878002845D0B87897
:1040100084F83600B87800283FD0F87884F8370064
:10402000F878D0B3387984F838003879A8B378793B
:1040300084F83900787980B3B87984F83A00B8798F
:1040400058B3F87984F83B00F87930B3387A84F8BB
:104050003C00387A08B3787A84F83D00787AE0B189
:10406000B87A84F83E00B87AB8B1F87A84F83F009C
:10407000F87A90B1387B84F84000387B68B1787B5F
:1040800084F84100787B40B1B87B84F84200B87B6B
:1040900000281CBFF87B84F84300002084F843000C
:1040A00003E000BF002084F834000027201D372DD6
:1040B00028BF3725E562C4E9135700F0F1FC04F18D
:1040C000180000F0EDFCC5F13800A0613046514603
:1040D000424624616462676584F8587000F036FBDC
:1040E000B9F1000F206018BFC9F80040BDE8F087A3
:1040F00008480068006880F308884FF0000080F3EB
:10410000148862B661B6BFF34F8FBFF36F8F00DFC5
:1041100000BF000008ED00E081B00020009040F2F8
:104120005800C2F2000000684FF0500181F311887E
:10413000BFF36F8FBFF34F8F013007D0FEE700BF93
:10414000009830B9009820B9009810B9009800285C
:10415000F6D001B07047000088B040F2441AC2F2B5
:10416000000A0DF11009EB46DAF8080005681DB1E8
:10417000C068046801E000BF002400F07BFF01F08C
:1041800025FDDAF810100646884220D3002DCAF823
:10419000106051D0A6424FD301F020FEDAF808009B
:1041A000C068C7683D1D284600F040FC97F828000D
:1041B000410745D400F0FE0087F8280084E000BFE6
:1041C0006860DAF8080039462D6100F06DFCDAF815
:1041D0000800016831B3C068C56804682F1D3846FF
:1041E00000F024FC296A2846884795F828004007F3
:1041F000EDD5A8692044A042E2D8DAF800000028F2
:1042000000F04881002004A931C101F0CFFCDAF8A8
:10421000000049460022002301F092F90028D6D17F
:1042200038E100BFDAF80C10CAF81060CAE90210D1
:1042300001F0D4FD1AE100BF65B1002210E000BF1B
:10424000B8693F610119B14279601FD90AF10800CC
:1042500021E000BFDAF80C000068B0FA80F04209F3
:10426000DAF80000A11B00F07BFD01F0B7FD00288B
:1042700040F0FC804EF60450CEF200004FF080512A
:104280000160BFF34F8FBFF36F8FEFE0311B8142AF
:1042900006D20AF10C000068294600F005FC13E084
:1042A000DAF80000002800F01381002004A991C171
:1042B00001F07CFCDAF8000049460022002301F0FE
:1042C0003FF9002800F00481396A38468847CDE07C
:1042D0000098B0F1FF3F07DCDDE90120039990472A
:1042E0000098002800F1C280029E706910B1301D54
:1042F00000F09CFB01F06AFCDAF8101007468842D7
:104300000DD30098CAF8107009283FD9AEE000BF5D
:104310006860DAF8080021462D6100F0C5FBDAF884
:104320000800016841B3C068C568D0F800802C1D42
:10433000204600F07BFB296A2846884795F828002C
:104340004007ECD5A86940444045E1D8DAF80000C0
:10435000002800F095800020CDE90408069501F0C2
:1043600025FCDAF8000049460022002301F0E8F8B5
:104370000028D4D184E000BFDAF80C10CAE902109A
:104380000098CAF81070092800F27080DFE800F089
:104390000606064448620606444800BF96F8280010
:1043A000019A40F00101B06986F82810831831465F
:1043B00041F8043FBB42366106D997420AF1080032
:1043C00007D293420AD204E0BA1A824206D20AF114
:1043D0000C00006800F068FB48E000BF316A30461E
:1043E000884796F82800400740D5DAF800000028F2
:1043F0005AD00198B169069608440021CDE904100D
:1044000001F0D4FBDAF8000049460022002301F055
:1044100097F858BB48E000BF96F8280022E000BF9C
:1044200096F8280040F00101019886F8281000282D
:10443000B06143D0384431460AF10C0241F8040F10
:104440003661B84288BF0AF10802106800F02CFB00
:104450000CE000BF96F82800810703D4304600F036
:10446000A9FB03E000F0FE0086F82800DAF800005F
:104470005946002201F0C2F900287FF429AF73E603
:104480004FF0500080F31188BFF36F8FBFF34F8F51
:10449000FEE700BF4FF0500080F31188BFF36F8F2D
:1044A000BFF34F8FFEE700BF4FF0500080F311883D
:1044B000BFF36F8FBFF34F8FFEE700BF4FF0500089
:1044C00080F31188BFF36F8FBFF34F8FFEE700BFFC
:1044D0004FF0500080F31188BFF36F8FBFF34F8F01
:1044E000FEE70000F0B581B0044600F027FB94F928
:1044F0004560012E0FDB04F1240500BF286850B190
:10450000284601F031FC002818BF00F09DFCF0B2F5
:10451000013E0128F2D8FF2684F8456000F032FB06
:1045200000F00CFB94F94470012F0EDB04F1100530
:10453000286850B1284601F017FC002818BF00F089
:1045400083FCF8B2013F0128F2D884F8446001B03E
:10455000BDE8F04000F016BB70B5044600F08AFDDF
:1045600040F2801CC2F2000CDCF8040050B19CF850
:104570000000002818BF4FF000404FF0000544BB7A
:1045800083E000BF40F65400C2F20000420700F58D
:10459000C83200F1070122F0070218BF21F007001E
:1045A0000021A2F10803CCE90601CCF8043042E96D
:1045B0000211DCF80420191AC0E9002101208CF84E
:1045C00000004FF00040CCE90211002C4FF0000534
:1045D0005BD0204059D124F0070000F110026007A1
:1045E00008BF04F10802DCF80800511E81424CD2D9
:1045F000604650F818EFDEF8045095422BD2DEF8F2
:104600000010B9B174464D68954217D20B68ABB132
:104610005D68954216D21868A0B14568954215D2DA
:1046200004689CB16568954214D22168A6460029A9
:10463000E9D110E00CF118000DE000BF8E462046D5
:1046400009E000BF9E46084605E000BF86461846C2
:1046500001E000BFA646DCF804108E4514D00168C6
:10466000DEF80040AB1A112B04604DD30EEB0205AF
:10467000680719D04FF0500080F31188BFF36F8F97
:10468000BFF34F8FFEE700BF002501F0A7FB6807CF
:104690005AD04FF0500080F31188BFF36F8FBFF3F3
:1046A0004F8F00BFFEE700BF0CF118006B60CEF823
:1046B000042000BF0368AB420AD21868A8420BD29C
:1046C0000368AB4204D218681A46A842F2D304E049
:1046D0000246184601E000BF1A4654686B68161976
:1046E000AE4202D1234415465360EC18844207D1F0
:1046F000DCF80440A04203D0D0E9000423446B60FE
:10470000AA42286018BF1560DEF80400DCE9022325
:1047100001F10805111A9942CCF8081038BFCCF8FD
:104720000C109CF8001000294FF0000118BF40F059
:104730000040CEE90010DCF810000130CCF8100089
:1047400001F04CFB6807A4D1284670BD034644F233
:10475000191021F00101C0F600004FF0807C03E940
:1047600003106FF00201A3F1440043E909127047FE
:104770002DE9F04784B040F60044C4F20204064636
:104780002A20A4F5006517468A468DF80D002846B4
:104790004FF4805100229946FCF71EF920464FF451
:1047A00080710022FCF718F940F21C28C2F20008C0
:1047B0000DF10D01404601220123FCF7A5FD204625
:1047C0004FF480710122FCF707F9300A8DF80900D7
:1047D000380A8DF80B0028464FF4805101228DF8DD
:1047E0000A608DF80C70FCF7F7F820464FF48071E2
:1047F0000022FCF7F1F80DF10901404604224FF0C8
:10480000FF33FCF781FD20464FF480710122FCF755
:10481000E3F82B208DF80E0028464FF4805100223B
:10482000FCF7DAF820464FF480710022FCF7D4F848
:104830000DF10E01404601220123FCF765FD2046E3
:104840004FF480710122FCF7C7F84FEA1A208DF867
:1048500005004FEA19208DF8070028464FF48051D3
:1048600001228DF806A08DF80890FCF7B5F82046D7
:104870004FF480710022FCF7AFF80DF105014046BE
:1048800004224FF0FF33FCF73FFD20464FF48071C8
:104890000122FCF7A1F82C208DF80F0028464FF4D8
:1048A00080510022FCF798F820464FF480710022D6
:1048B000FCF792F80DF10F01404601220123FCF7AD
:1048C00023FD20464FF480710122FCF785F804B0E7
:1048D000BDE8F08770B582B040F60044C4F202042F
:1048E00006463620A4F500658DF8030028464FF4EF
:1048F00080510022FCF770F820464FF480710022AE
:10490000FCF76AF840F21C20C2F200000DF103012E
:1049100001220123FCF7F8FC20464FF480710122AC
:10492000FCF75AF806F00300DFE800F00252183CEA
:1049300048208DF8040028464FF480510122FCF7EE
:104940004BF820464FF480710022FCF745F840F206
:104950001C20C2F2000001A915E000BF88208DF8DC
:10496000060028464FF480510122FCF735F8204616
:104970004FF480710022FCF72FF840F21C20C2F2A5
:1049800000000DF1060101220123FCF7BDFC2046C9
:104990004FF480710122FCF71FF84FF4F0704FF4D0
:1049A000A07138E0E8208DF8070028464FF48051C8
:1049B0000122FCF711F820464FF480710022FCF729
:1049C0000BF840F21C20C2F200000DF1070114E0C8
:1049D00028208DF8050028464FF480510122FBF76E
:1049E000FBFF20464FF480710022FBF7F5FF40F2F9
:1049F0001C20C2F200000DF1050101220123FCF789
:104A000083FC20464FF480710122FBF7E5FF4FF451
:104A1000A0704FF4F07140F26002C2F20002118007
:104A20005080FBF753FD02B070BD0000D0E90132A9
:104A300001699A60D1F804C082688445536008BF58
:104A40004A600022026108680138086008687047FF
:104A500049F65803C2F2010303604CF20000C2F2AF
:104A6000010008604FF47A601060704749F6B44363
:104A7000C2F20103036049F6B400C2F2010008600B
:104A80004FF48070106070474FF0FF31024642F8DB
:104A9000081F00214260C0E9032201607047000046
:104AA000002101617047000010B5D1F800E01EF14F
:104AB000010213D000F1080462681368734511D82D
:104AC00053681C68744511D85A68146874450FD827
:104AD00054682368A4467345EED90BE00269D2F806
:104AE00004C007E09446224604E000BF9C4601E073
:104AF00094461A46C1F804C0CCF808108A60516088
:104B0000086101680131016010BD0000D0F800C0EB
:104B1000436808619A684B608A609A68996051603E
:104B20000CF1010101607047DFF80C00016841F4ED
:104B3000700101607047000088ED00E04FF0500008
:104B400080F31188BFF36F8FBFF34F8F40F258008F
:104B5000C2F2000001684A1C026009B1704700BF40
:104B60004EF60450CEF200000068000608BF704701
:104B70004FF0500080F31188BFF36F8FBFF34F8F5A
:104B8000FEE7000040F25800C2F20000016839B1AF
:104B90000139016018BF7047002080F31188704709
:104BA0004FF0500080F31188BFF36F8FBFF34F8F2A
:104BB000FEE7000070B5002808BF70BD40F2801508
:104BC000C2F200050446287854F8041C002818BFD7
:104BD0004FF0004008420DD0A4F1080632689AB1A7
:104BE0004FF0500080F31188BFF36F8FBFF34F8FEA
:104BF000FEE700BF4FF0500080F31188BFF36F8FC6
:104C0000BFF34F8FFEE700BF21EA000044F8040C19
:104C100000F030FA54F8041CA8680844A86005F1B4
:104C2000180000BF0368B3420AD21868B04225D208
:104C30000368B34204D218681A46B042F2D301E0C6
:104C4000024618465368D418B44202D11944164695
:104C500051607318834206D16B68984203D0D0E943
:104C6000000319447160B242306018BF1660686971
:104C700001306861BDE8704001F0B0B81A46536871
:104C8000D418B442E5D1E1E74EF21000CEF20000B4
:104C900000210160816040F25401C2F20001096804
:104CA0004FF0FF3202EB11114160072101607047A4
:104CB00049F6105CC2F2010CDCF8002022B3634616
:104CC00053F8082F42B3634653F8102F52B363468C
:104CD00053F8182F62B3634653F8202F72B363461C
:104CE00053F8282F82B3634653F8302F92B36346AC
:104CF00053F8382F002A18BF7047072219600CEBB1
:104D0000C2014860704700BF0022634619600CEB87
:104D1000C2014860704700BF012219600CEBC2015C
:104D200048607047022219600CEBC201486070476E
:104D3000032219600CEBC20148607047042219601D
:104D40000CEBC20148607047052219600CEBC201F0
:104D500048607047062219600CEBC201486070473A
:104D600070B515460E460446FFF7E8FE94F8440079
:104D7000FF2804BF002084F8440094F84500FF2871
:104D800004BF002084F84500FFF7FCFEA06B28B1AB
:104D90002046BDE87040FFF7A5BB00BF04F124002A
:104DA00031462A4600F092F82046BDE87040FFF7F1
:104DB00099BB000070B588B340F2CC05C2F2000583
:104DC0000446686950B14FF0500080F31188BFF37A
:104DD0006F8FBFF34F8F00BFFEE700BF68690130E0
:104DE0006861AE6928680430FFF720FE2868A419BE
:104DF000446005D3286A29680431FFF755FE08E0AE
:104E0000E86929680431FFF74FFEE86A844238BF39
:104E1000EC6200F0E3FF002818BF70BD4EF60450AE
:104E2000CEF200004FF080510160BFF34F8FBFF30F
:104E30006F8F70BD40F2CC01C2F200018A6B02603C
:104E4000896941607047000040F2CC00C2F2000066
:104E5000012101637047000070B5D8B140F2CC0465
:104E6000C2F200040D4621681831FFF71DFEA66945
:104E700020680430FFF7DAFD681C15D02068AD19F2
:104E8000456019D3206A21680431BDE87040FFF7FE
:104E90000BBE00BF4FF0500080F31188BFF36F8F3F
:104EA000BFF34F8FFEE700BF54F8500B011D2046A3
:104EB000BDE87040FFF72ABEE06921680431FFF7C2
:104EC000F3FDE06A854238BFE56270BDF0B581B0A0
:104ED000C0B140F2CC04C2F200040D46216816466F
:104EE0001831FFF713FEA76920680430FFF79EFD15
:104EF00096B154F8500B011D204601B0BDE8F040BA
:104F0000FFF704BE4FF0500080F31188BFF36F8F9E
:104F1000BFF34F8FFEE700BF2068ED19456007D350
:104F2000206A2168043101B0BDE8F040FFF7BCBD44
:104F3000E06921680431FFF7B7FDE06A854238BFB8
:104F4000E56201B0F0BD000010B588B03BA001F0F3
:104F50004DF90020CDE9050006A805A904AAFFF730
:104F600077FD0598002841D0069C002C48D05C2194
:104F7000049A079107995C294CD107992063022074
:104F800084F8590007A80021CDE9001043F64170CC
:104F9000C0F600002EA100230294FFF715F820466A
:104FA000FEF76CFE079840F2CC04C2F20004A06247
:104FB000C8B100F08BFF411C36D0012813D14FF04F
:104FC000500080F31188BFF36F8FBFF34F8F4FF006
:104FD000FF30E062012020610020A0611EA001F0EE
:104FE00005F900F0ADF808B010BD00BF4FF050005B
:104FF00080F31188BFF36F8FBFF34F8FFEE700BFC1
:105000004FF0500080F31188BFF36F8FBFF34F8FC5
:10501000FEE700BF4FF0500080F31188BFF36F8FA1
:10502000BFF34F8FFEE700BF4FF0500080F31188B1
:10503000BFF36F8FBFF34F8FFEE700BF76546173EE
:105040006B53746172745363686564756C65720048
:1050500049444C450000000046726F6D2076546153
:10506000736B53746172745363686564756C6572B5
:105070000000000040F2CC00C2F2000041690131A2
:105080004161704780B540F2CC0EC2F2000EDEF8EE
:10509000141019B10121CEF8301080BD0021CEF8D6
:1050A0003010DEF8241040F2F43C01EB8103C2F230
:1050B000000C5CF823208AB101EB81020CEB820327
:1050C00053F8042F5268181D82421A6020D0D0680D
:1050D000CEF80000CEF8241080BD00BF0CEB830298
:1050E000A2F12803E1B15A6922BB012918D01A683C
:1050F00012BB022914D053F8142CFAB903290FD08B
:1051000053F8282C0439002AA3F15003EAD0D3E73E
:1051100052681A60D068CEF80000CEF8241080BD26
:105120004FF0500080F31188BFF36F8FBFF34F8FA4
:10513000FEE700BF0139BFE70239BDE70339BBE72E
:10514000B0B584B04EF200444CF270255FA0CEF2B0
:105150000004C4F20F1501F049F8D4F80009691CE5
:10516000884209D14FF0500080F31188BFF36F8F50
:10517000BFF34F8FFEE700BFD4F80009A84209D162
:105180004FF0500080F31188BFF36F8FBFF34F8F44
:10519000FEE700BF20780290FF20207020788DF875
:1051A00007009DF8070000F0500140F2A010C2F285
:1051B00000000170072141609DF90710B1F1FF3F28
:1051C0006EDC0321CA1C42609DF807305B008DF83D
:1051D00007309DF90730B3F1FF3F24DC8A1C4260A1
:1051E0009DF807305B008DF807309DF90730B3F16B
:1051F000FF3F18DC4A1C42609DF807305B008DF8C9
:1052000007309DF90730B3F1FF3F0CDC41609DF89A
:105210000720043952008DF807209DF90720B2F1CC
:10522000FF3FCFDD0A1D032A3AD14FF440714160A0
:1052300002982070D4F8200940F47000C4F82009C6
:10524000D4F8200940F07040C4F82009FFF71CFD95
:1052500040F25804C2F2000400252560FFF764FC08
:105260004EF63470CEF20000016841F0404101601A
:105270001BA000F0BBFFFEF73BFF1EA000F0B6FF37
:10528000FFF700FF039520684FF0500181F311886C
:10529000BFF36F8FBFF34F8F013011D0FEE700BF18
:1052A0004FF0500080F31188BFF36F8FBFF34F8F23
:1052B000FEE700BF039830B9039820B9039810B9EE
:1052C00003980028F6D0002004B0B0BD78506F726B
:1052D0007453746172745363686564756C657200AD
:1052E0005374617274204669727374205461736BD5
:1052F00020000000436F6E746578742073776974C2
:1053000063682066726F6D2078506F727453746199
:1053100072745363686564756C65720080B54FF094
:10532000500080F31188BFF36F8FBFF34F8F00F0F1
:1053300053FC30B14EF60450CEF200004FF08051D5
:105340000160002080F3118880BD000070B5054623
:105350005020FFF701F9044670B30026012084F8BD
:1053600046602460C4E90F06FFF7E8FB2068D4E933
:105370000F12A66302FB0103013901FB0201C4E91C
:105380000103FF20E16084F8440084F8450004F143
:105390001000FFF779FB04F12400FFF775FBFFF71E
:1053A000F1FB204600210022002384F84C502660A7
:1053B000C4E9026600F0C4F8204670BD70B582B042
:1053C000D1B3054650200190019850283ED1019854
:1053D0000C460120002681F846000960C4E90F064A
:1053E000FFF7ACFB2068D4E90F12A66302FB0103B0
:1053F000013901FB0201C4E90103FF20E16084F8E7
:10540000440084F8450004F11000FFF73DFB04F16F
:105410002400FFF739FBFFF7B5FB204600210022EF
:10542000002384F84C502660C4E9026600F088F836
:10543000204602B070BD00BF4FF0500080F31188CD
:10544000BFF36F8FBFF34F8FFEE700BF4FF05000E9
:1054500080F31188BFF36F8FBFF34F8FFEE700001B
:1054600070B582B070B11C46B3B1F9B9F2B14FF06A
:10547000500080F31188BFF36F8FBFF34F8F00BFD1
:10548000FEE700BF4FF0500080F31188BFF36F8F2D
:10549000BFF34F8FFEE700BF4FF0500080F311883D
:1054A000BFF36F8FBFF34F8FFEE700BF51B14AB913
:1054B0004FF0500080F31188BFF36F8FBFF34F8F11
:1054C000FEE700BF50230193019B502B2ED1019B7F
:1054D000069E012384F84630002908BF2246226038
:1054E000C4E90F01FFF72AFB2068D4E90F12002559
:1054F00002FB0103013901FB0201A563C4E90103B9
:10550000FF20E16084F8440084F8450004F11000B5
:10551000FFF7BAFA04F12400FFF7B6FAFFF732FBFF
:10552000204684F84C6002B070BD00BF4FF05000C0
:1055300080F31188BFF36F8FBFF34F8FFEE700003A
:105540002DE9F04F83B00292C0B11D4617460E46BA
:105550000446E9B1022D02D1E06B01285AD100F0D6
:1055600025FB18BB17B34FF0500080F31188BFF331
:105570006F8FBFF34F8F00BFFEE700BF4FF05000AB
:1055800080F31188BFF36F8FBFF34F8FFEE700BF2B
:10559000206C0028DED04FF0500080F31188BFF35C
:1055A0006F8FBFF34F8F00BFFEE700BFFFF7C6FA54
:1055B000A06B022D65D0E16B884262D3029800286F
:1055C00000F016816846FFF735FCFFF7DBFAFFF7BE
:1055D00051FDFFF7B3FA94F84400FF2804BF002000
:1055E00084F8440094F84500FF2804BF002084F8A4
:1055F0004500FFF7C7FA684602A900F01FFA98B104
:105600002046FEF76FFF00F0E9FB002003B0BDE885
:10561000F08F00BF4FF0500080F31188BFF36F8F01
:10562000BFF34F8FFEE700BF04F11008FFF786FAC3
:10563000D4F83890E76BFFF7A5FAB94516D102996F
:105640004046FFF709FC2046FEF74CFF00F0C6FB82
:1056500088B94EF60450CEF200004FF08051016040
:10566000BFF34F8FBFF36F8F05E000BF2046FEF7FB
:1056700039FF00F0B3FBFFF761FAA06BE16B8842E2
:1056800064D2A76B226CDAB125B3E0683146FAF731
:10569000C8FDE168206C2268091A9142E16003D2DA
:1056A000A16840420844E060A81EB0FA80F04009BA
:1056B0003946002F18BF012108403F1A17E000BFEC
:1056C00020680025A0B9A06800F008FBA560054689
:1056D0000EE000BF60683146FAF7A3FDD4E901018E
:1056E000226C10448842606001D32068606000250D
:1056F000781CA06354F8240FA0B1204600F034FBBE
:1057000050B14EF60450CEF200004FF080510160CF
:10571000BFF34F8FBFF36F8FFFF734FA012003B051
:10572000BDE8F08F002DF7D04EF60450CEF2000009
:105730004FF080510160BFF34F8FBFF36F8FFFF7C2
:1057400021FA012003B0BDE8F08F00BFE94602AFA7
:105750000CE000BF2046FEF7C5FE00F03FFBFFF760
:10576000EDF9A06BE16B8842FFF48BAF0298002843
:105770003ED0FFF707FAFFF77DFCFFF7DFF994F85B
:105780004400FF2804BF002084F8440094F845003A
:10579000FF2804BF002084F84500FFF7F3F94846CE
:1057A000394600F04BF900287FF42AAFFFF7C6F91D
:1057B000D4F838A0D4F83CB0FFF7E4F9DA45C9D101
:1057C00002994046FFF748FB2046FEF78BFE00F0AB
:1057D00005FB0028C3D14EF60450CEF200004FF076
:1057E00080510160BFF34F8FBFF36F8FB7E700BFEA
:1057F000FFF7C8F9002003B0BDE8F08F2DE9F04FA6
:1058000083B0029290B116460D460446002947D057
:1058100000F0CCF9A0B99EB14FF0500080F3118890
:10582000BFF36F8FBFF34F8FFEE700BF4FF0500005
:1058300080F31188BFF36F8FBFF34F8FFEE700BF78
:10584000FFF77CF9D4F838A0BAF1000F36D0226CFB
:1058500052B1D4E902011144E160814224BF2168C0
:10586000E1602846FAF7DDFCAAF10100A06354F8D4
:10587000100F70B1204600F077FA50B14EF6045088
:10588000CEF200004FF080510160BFF34F8FBFF3A5
:105890006F8F0124FFF776F9204603B0BDE8F08F43
:1058A000206C0028B4D04FF0500080F31188BFF373
:1058B0006F8FBFF34F8F00BFFEE700BF0298002835
:1058C00000F0B4806846FFF7B5FAFFF75BF9FFF721
:1058D000D1FBFFF733F994F8440004F12408FF28C2
:1058E00004BF002084F8440094F84500FF2804BF5A
:1058F000002084F84500FFF745F9684602A900F04A
:105900009DF878B12046FEF7EDFD00F067FAFFF74D
:1059100015F9A66BFFF736F92EBB0024204603B01D
:10592000BDE8F08FFFF70AF9A66BFFF72BF92EB150
:105930002046FEF7D7FD00F051FA14E002994046E8
:10594000FFF78AFA2046FEF7CDFD00F047FA50B97E
:105950004EF60450CEF200004FF080510160BFF3CC
:105960004F8FBFF36F8FFFF7E9F8D4F838A0BAF183
:10597000000F7FF46CAF4FF00009EB4602AE13E06E
:105980002046FEF7AFFD00F029FAFFF7D7F8A76B26
:10599000FFF7F8F8002FC0D0FFF7D0F8D4F838A000
:1059A000BAF1000F7FF453AF029800283ED0FFF702
:1059B000E9F8FFF75FFBFFF7C1F894F84400FF2810
:1059C00008BF84F8449094F84500FF2808BF84F885
:1059D0004590FFF7D7F85846314600F02FF80028D9
:1059E000CED1FFF7ABF8A76BFFF7CCF837B1204665
:1059F000FEF778FD00F0F2F9CEE700BF02994046CD
:105A0000FFF72AFA2046FEF76DFD00F0E7F90028BF
:105A1000C2D14EF60450CEF200004FF0805101602A
:105A2000BFF34F8FBFF36F8FB6E700BF0024FFF7C0
:105A3000A9F8204603B0BDE8F08F0000B0B538B338
:105A40000D4679B30446FFF779F840F2CC0CC2F268
:105A5000000CDCF8182029684B1C2DD0D4E9000E6E
:105A6000DCF83830834201D072452DD2A2EB0E0211
:105A7000914227D9881A2860DCF838002060DCF8C9
:105A8000180060600024FFF77DF82046B0BD00BF1D
:105A90004FF0500080F31188BFF36F8FBFF34F8F2B
:105AA000FEE700BF4FF0500080F31188BFF36F8F07
:105AB000BFF34F8FFEE700BF0024FFF763F82046D7
:105AC000B0BD00BF002028600124FFF75BF820462E
:105AD000B0BD00002DE9F04383B007469000984622
