:020000040800F2
:1000000008A101209D010008152F0008CD1D000842
:10001000112F000835040008C93500080000000051
:10002000000000000000000000000000B1300008E7
:100030003904000800000000212F0008D530000816
:10004000B7010008B7010008B7010008B7010008B0
:10005000B7010008B7010008B7010008B7010008A0
:10006000B7010008B7010008B7010008B701000890
:10007000B7010008B7010008B7010008B701000880
:10008000B7010008B7010008B7010008B701000870
:10009000B7010008B7010008B7010008B701000860
:1000A000B7010008B1310008B7010008B701000826
:1000B000B7010008B7010008B7010008B701000840
:1000C000B7010008B7010008B7010008B701000830
:1000D000B7010008BD350008B7010008B7010008E6
:1000E000B7010008B7010008B7010008B701000810
:1000F000B7010008B7010008B7010008B701000800
:10010000B7010008B7010008B7010008B7010008EF
:10011000B7010008B7010008B7010008B7010008DF
:10012000B7010008B7010008B7010008B7010008CF
:10013000B7010008B7010008B7010008B7010008BF
:10014000B7010008B7010008B7010008B7010008AF
:10015000B7010008B7010008B7010008B70100089F
:10016000B7010008B7010008B7010008B70100088F
:10017000B7010008B7010008B7010008000000003F
:10018000B7010008B7010008DFF80CD000F0A2F8B2
:1001900000480047A537000808A10120064880470D
:1001A00006480047FEE7FEE7FEE7FEE7FEE7FEE75C
:1001B000FEE7FEE7FEE7FEE79D3100088901000843
:1001C0002DE9F05F0546002092469B46884606468C
:1001D000814640241BE0284641464746224600F01F
:1001E00069F853465A46C01A914110D31146184631
:1001F000224600F050F82D1A67EB01084F462246C0
:100200000120002100F047F817EB00094E41201EA5
:10021000A4F10104DFDC484631462A464346BDE8E6
:10022000F09F40EA01039B0703D009E008C9121FB1
:1002300008C0042AFAD203E011F8013B00F8013BA0
:10024000521EF9D27047D2B201E000F8012B491ECC
:10025000FBD270470022F6E710B513460A46044663
:100260001946FFF7F0FF204610BD30B50B4601469A
:1002700000202022012409E021FA02F59D4205D345
:1002800003FA02F5491B04FA02F52844151EA2F1EF
:100290000102F1DC30BD202A04DB203A00FA02F131
:1002A000002070479140C2F1200320FA03F3194364
:1002B00090407047202A04DB203A21FA02F0002106
:1002C000704721FA02F3D040C2F120029140084366
:1002D000194670471CB50948009009480190054629
:1002E000009C06E0E06840F0010394E807009847AE
:1002F0001034AC42F6D3FFF74BFF0000B8600008A3
:10030000E8600008F0B581B040F20404C2F20004D5
:10031000B4F91000B4F9121000260322032300964A
:1003200003F054F9218AA069E26A4718974213DA68
:10033000626AE169974231DC94F82020002848BFC6
:100340004042802AA06121D181EAE172C2EBE171D1
:10035000E16102221FE000BF94F82030002848BF6E
:100360004042E169022B05D181EAE173C3EBE171FF
:10037000802303E02023002948BF49424042C4E9CA
:10038000060184F82030D71E08E000BF08220029AB
:1003900048BF4942E1610A2784F82020628A236B22
:1003A0008E189E420CDDA26B964234DB94F820300E
:1003B000202B23D180EAE073C3EBE070802321E09F
:1003C00094F82020802A0BD180EAE072C2EBE07022
:1003D000A0612020002948BF4942E16109E000BF37
:1003E000002848BF40420029A06148BF4942E1615E
:1003F000082084F820000A260DE000BF0223002810
:1004000048BF404281EAE176C6EBE171D61EC4E9FD
:10041000060184F820304FF6FF7538B231B203225E
:100420000323009503F0D2F827820120668201B0F1
:10043000F0BD0000FEE700007047000072B600BF8C
:10044000FEE70000F0B581B0002003F087F940F22C
:10045000600640F20405C2F20006C2F20005B6F9D9
:100460000020B5F944304FF6FF74002000210094BD
:1004700003F0ACF840F26207C2F20007B5F92810A9
:10048000B5F94420B7F900300020009403F09EF83D
:10049000B5F92C00B5F94420B7F9003000210094DB
:1004A00003F094F8B6F90020B5F94010B5F94430DE
:1004B0000020009403F08AF8EA6895E80B0002EB4C
:1004C000D277A0EB570003EBD377A1EB57014FF4A2
:1004D000784700B209B212B21BB2009703F076F867
:1004E000B5F91400B5F9161003220323009403F0A4
:1004F0006DF801B0F0BD000040F20402C2F200024B
:10050000052305390538C2E90933C2E90B13C2E9ED
:100510000D10C2E90F30704770B5866D044600F0CB
:1005200045F994F83510022928D105462068216C38
:10053000026822F016020260426922F080024261E3
:1005400009B9A16C19B1016821F0080101600168C5
:1005500021F00101016000BF20680068C00715D0CC
:1005600000F024F9401B0628F6D320206065032004
:1005700084F83500002184F8341070BD8020606557
:100580000120002184F8341070BD00BFE06D3F21D0
:1005900001FA00F0B060012084F83500002000214D
:1005A00084F8341070BD000090F83510022909D18C
:1005B000052180F835100068016821F00101016013
:1005C000002070478021416501207047B0B5044686
:1005D00000F0ECF8054640F24C00C2F20000007852
:1005E000611C18BF044400BF00F0E0F8401BA042AB
:1005F000FAD3B0BD2DE9F04F83B000F1200200F135
:100600003E4741F60045009207F1FF77C4F202052C
:1006100008224FEAB726A84208BF072200254FF05C
:1006200000084FF00009072E38BF4FEAB7220192A9
:100630000AE000BF09F1010908F10208B9F1100F41
:1006400005F1040500F0A2800F68012202FA09FEFC
:1006500017EA0E0AEED0D1F804C003220CF003070B
:100660007E1E02FA08F4012E6FEA040B12D8846889
:10067000CE6804EA0B0406FA08F634438460446842
:1006800024EA0E06CCF3001404FA09F4264346606B
:1006900004E000BF032F01D103271EE0C6688C6869
:1006A00006EA0B0604FA08F42643022FC66014D1AA
:1006B0006FF00302009E02EA590756F807C005F0E2
:1006C0001C040F220B69A2402CEA0202A3401A4329
:1006D000F251D1F804C00CF00307026807FA08F3DE
:1006E00002EA0B021A431CF4403F0260A2D000222F
:1006F00043F644030292C4F202031A6843F600442C
:1007000042F480421A601A68C4F2010402F4804282
:100710000292029A29F003024FF6084C2244CFF6C7
:10072000FF7C52F80C3005F00C070F26BE40B34397
:10073000019E06FA07F73B4342F80C30A2684B686B
:1007400042EA0A0743F60C4CDE0258BF22EA0A07C7
:10075000A760C4F2010CDCF800209E0242EA0A07FE
:1007600058BF22EA0A07CCF8007062689E0342EA8A
:100770000A0758BF22EA0A0767602268DB0342EAD9
:100780000A0758BF22EA0A07276053E703B0BDE80B
:10079000F08F00000069084018BF0120704700007A
:1007A000002A08BF090481617047000049F60C0067
:1007B000C2F201000068704740F24C0049F60C019B
:1007C000C2F20000C2F2010100780A681044086019
:1007D0007047000080B543F60040C4F20200016893
:1007E00041F400710160016841F4806101600168B9
:1007F00041F480710160032000F0BEF80F2000F08A
:1008000005F800F059F8002080BD0000B0B586B0B2
:10081000002543F644010195C4F202010A6804462A
:1008200042F001020A60096801A801F0010101918A
:100830000199694600F062F900F094F94DF6836180
:100840004000C4F21B31A0FB01014FF0FF3000EB70
:10085000914140F22C200022C2F20000C4F20102B9
:1008600040F2E733C0E90021C0E902530561856128
:1008700000F06EFD10B106B0B0BD00BF40F22C20FC
:10088000C2F2000000F094FD0028F4D1192000F01D
:1008900035F80F2C0CD819202146002200F040F822
:1008A00040F250010020C2F200010C6006B0B0BD61
:1008B000012006B0B0BD000082B0002043F6400128
:1008C0000190C4F202014A6842F480424A604A68D8
:1008D00002F480420192019A00900868002240F0E0
:1008E0008050086008680F2100F080500090009848
:1008F0006FF0010002B000F013B80000002848BFFC
:10090000704700F01F01012202FA01F11C2202EAE5
:10091000D0004EF20012CEF200028150704700006B
:1009200010B54EF60C5CCEF2000CDCF80030C3F3D0
:10093000022E8EF00704042C28BF0424BEF103030A
:100940004FF0FF3E0EFA04F438BF0023A143994054
:100950000EFA03F39A43114300F00F0200F16043D3
:100960000901043A03F564436244002848BF02F1D8
:100970000C03197010BD00004EF60C51CEF20001B0
:100980000A684FF6FF031A4060F30A2242F08060C3
:1009900040F0FD7008607047002804BF01207047D8
:1009A0002DE9F04143F60808C4F202080446D8F8DD
:1009B000F8030D4600F00700884207D288F8F85384
:1009C000D8F8F80300F00700A84277D12068810723
:1009D00017D5410705D5D8F8001041F4E051C8F803
:1009E0000010010705D5D8F8001041F46041C8F89F
:1009F0000010D8F80010A26821F0F0011143C8F8E7
:100A00000010C00740D1D8F8F80300F00700A84252
:100A100007D988F8F853D8F8F80300F00700A8427F
:100A20004CD12068410707D5D8F80010E26821F4BE
:100A3000E0511143C8F80010000708D5D8F80000AD
:100A4000216920F4604040EAC100C8F8000000F0CD
:100A50009DF8D8F8001046F27002C1F30311C0F6F9
:100A60000002515C40F2540220FA01F140F25000C1
:100A7000C2F200000068C2F200021160FFF7C6FE79
:100A80000020BDE8F08100BF6068811E022907D206
:100A900058F8081C89015CBF0120BDE8F08111E015
:100AA000012807D158F8081C89035CBF0120BDE864
:100AB000F08107E058F8081C890703D40120BDE83D
:100AC000F08100BFD8F8001021F003010843C8F8F6
:100AD0000000FFF76BFE064641F28837D8F80000A9
:100AE000616800F00C00B0EB810F8CD0FFF75EFE68
:100AF000801BB842F2D90320BDE8F0810F220260CA
:100B000043F60802C4F20202136803F003034360D1
:100B1000136803F0F0038360136803F4E053C360C9
:100B2000D2F800C04FF4E05303EADC030361D2F8CB
:100B3000F80300F0070008607047000040F254001E
:100B400043F60801C2F20000C4F20201006809681D
:100B500046F28002C1F38221C0F60002515CC84017
:100B60007047000040F2540043F60801C2F2000052
:100B7000C4F202010068096846F28002C1F3423102
:100B8000C0F60002515CC8407047000010B543F643
:100B90000404C4F20204606800F00C0142F2004058
:100BA0000829C0F2F40007D0042918BF10BD41F293
:100BB0000020C0F27A0010BD216801F03F022168D8
:100BC00023684902C3F3881106D4A1FB0001002366
:100BD000FFF7F6FA07E000BF41F20020C0F27A000A
:100BE0004843B0FBF2F021680222C1F3014102EB5D
:100BF0004101B0FBF1F010BD002804BF0120704797
:100C00002DE9F04182B00446007843F60006C007A3
:100C1000C4F202060CD0B06800F00C00042840F0CA
:100C200081803068800303D56068002800F0688107
:100C3000207880071BD5B06810F00C0F09D0B06881
:100C400000F00C00082840F087807068400200F136
:100C500083803068800703D5E068012840F0508128
:100C60003068216920F0F80040EAC1003060207847
:100C7000000713D4207840072AD4A569002D00F07E
:100C80003A81B06800F00C00082840F0A580012DE2
:100C900040F00E81012002B0BDE8F08160690028BB
:100CA00000F082800020C4F247200121C0F8801E9D
:100CB000FFF77CFD054600BF706F8007DAD4FFF7B1
:100CC00075FD401B0228F7D9032002B0BDE8F08172
:100CD000306C5FEAC0080AD400200190306C40F00C
:100CE00080503064306C00F080500190019847F2E1
:100CF0000007C4F200073868C00547D4386840F4DC
:100D000080703860FFF752FD054600BF3868C005A7
:100D10003CD4FFF74BFD401B0228F7D9032002B05B
:100D2000BDE8F081B06800F00C00082803D17068BD
:100D300040023FF576AF61683068B1F5803F07D07B
:100D4000B1F5A02F40F09A8040F4802030603068E8
:100D500040F4803030609AE0E068002840F2000003
:100D6000C4F247205CD001210160FFF71FFD05465A
:100D7000306880073FF574AFFFF718FD401B02286D
:100D8000F6D9032002B0BDE8F08100BFA168306F42
:100D9000012905D0052955D140F004003067306F96
:100DA00040F00100306756E00020C4F247200021E7
:100DB000C0F8801EFFF7FAFC054600BF706F800781
:100DC0007FF558AFFFF7F2FC401B0228F6D903204D
:100DD00002B0BDE8F08100BF0027C4F24727002021
:100DE0003866FFF7E3FC022D05460DD1306880011F
:100DF00040F18A80FFF7DAFC401B02284FF0030025
:100E0000F4D902B0BDE8F0813068800173D5FFF7F6
:100E1000CDFC401B02284FF00300F5D9F1E700BFDD
:100E200000210160FFF7C2FC054600BF3068800763
:100E30007FF51DAFFFF7BAFC401B02284FF00300FF
:100E4000F4D9DEE720F001003067306F002920F090
:100E5000040030677AD0FFF7A9FC054641F28837D5
:100E6000306F800700F18480FFF7A0FC401BB84280
:100E7000F6D9032002B0BDE8F08100BF20F4803035
:100E800030603068002920F4802030607AD0FFF78D
:100E90008DFC0546306880033FF5CAAEFFF786FC3F
:100EA000401B6428F6D9032002B0BDE8F08100BFE2
:100EB0007068E16900F480028A4221D1216A00F061
:100EC0003F028A421CD147F6C071626A0140B1EB11
:100ED000821F15D1A16A4FF6FF73C903994300F42D
:100EE0004032A1F580318A420AD1E16A00F0706097
:100EF000B0EB016F04D1002002B0BDE8F08100BF6B
:100F0000012002B0BDE8F08104F11C052FCD08439B
:100F100040EA8210D9034FF6FF729143A1F5803168
:100F200040EA05600843706001203866FFF73EFC28
:100F3000044600BF30688001DDD4FFF737FC001B9A
:100F400002284FF00300F5D95BE700BFFFF72EFC46
:100F5000054641F2883700BF306F800708D5FFF79C
:100F600025FC401BB8424FF00300F5D949E700BF0C
:100F7000B8F1000F3FF581AE306C20F08050306446
:100F80007BE600BFFFF712FC054600BF3068800318
:100F90007FF54EAEFFF70AFC401B64284FF00300BC
:100FA000F4D92EE770B528B1416A29B10021016159
:100FB000142106E0012070BD4168B1F5827F02D0A6
:100FC0001C21002242500026866290F8511029B957
:100FD00080F85060054600F03DF82846022180F870
:100FE000511090E82E0002F482720C6803F404435E
:100FF00024F040040C601A4405F4006305691A44A7
:1010000005F0020345691A4405F001038569C469C6
:101010001A4405F400731A4404F03803046A1A44AD
:1010200004F08003846A1A4304F400531A430A60EC
:10103000436A042202EA154203F010031A444A608C
:10104000CA6922F40062CA610121466580F8511024
:10105000304670BD80B586B043F600010068C4F22A
:101060000001002288420592CDE9032202920192FA
:1010700002D006B080BD00BF43F630000092C4F23B
:101080000200036943F480430361036903F480436E
:101090000093009B0092036843F002030360006822
:1010A00000F00200009000984FF460400190022090
:1010B000CDE90202032004900520059001F5E630F9
:1010C00001A9FFF797FA06B080BD00002DE9F041B5
:1010D00084B01D4616460F460446FFF767FB94F89A
:1010E000511001290ED18046002F4FF0010018BF8A
:1010F000002E03D104B0BDE8F08100BF94F8500089
:10110000012803D1022004B0BDE8F081012084F859
:1011100050000320002184F8510061652763A686F2
:10112000E686A163A187E187A0682164B0F5004F3E
:101130002068616407D1016821F040010160016805
:1011400041F4804101600168490603D4016841F01F
:10115000400101606168731EE268B1FA81F1B3FA7F
:1011600083F349095B09B2F5006F41EA030139D104
:1011700031B137F8021BC1602763E08E0138E08689
:10118000E08E002870D0681C0BD11AE0216B31F87A
:10119000022BC2602163E08E0138E086E08E0028D9
:1011A00062D0206881688907F0D4FFF7FFFAA0EBCE
:1011B0000800A842F2D338E0FFF7F8FAE08E0028E2
:1011C00052D0206881688907F6D5216B31F8022B4F
:1011D000C2602163E08E0138E086E08E0028F0D105
:1011E00042E000BF39B139780173206B01302063D0
:1011F000E08E0138E086E08EB0B3681C0BD123E0AE
:10120000216B09780173206B01302063E08E013877
:10121000E086E08E40B3206881688907F0D4FFF74C
:10122000C5FAA0EB0800A842F3D3012084F85100CE
:10123000002084F85000032004B0BDE8F08100BF16
:10124000FFF7B4FAE08E78B1206881688907F7D596
:10125000216B09780173206B01302063E08E013827
:10126000E086E08E0028EFD12046022101222B46A5
:10127000CDF8008001F086FEE0B1606D40F0200006
:10128000606520206065A06838B900200290206861
:10129000C1680291806802900298012084F8510090
:1012A000002084F85000606D002818BF012004B0B1
:1012B000BDE8F08140F25400C2F20000006849F637
:1012C0008171C1F25E61A0FB0101480D4FF47A719A
:1012D000484303906068B0F5827F0BD1204680219F
:1012E00000222B46CDF8008001F04CFE0028C4D12E
:1012F000C9E700BF03980028C5D0039801380390C0
:10130000206880680006BED503980028BBD00398EB
:1013100001380390206880680006B4D5039800283F
:10132000B1D0039801380390206880680006AAD5E0
:1013300003980028A7D0039801380390206880689C
:101340000006D7D49FE700007047000070470000F8
:10135000002804BF0120704710B5044690F83D00F6
:1013600028B9002084F83C00204600F01FF8022035
:1013700084F83D002068211D01F020FF012084F841
:10138000460084F83E0084F83F0084F8400084F86A
:10139000410084F8420084F8430084F8440084F853
:1013A000450084F83D00002010BD0000704700009B
:1013B00090F83D1001291CBF01207047022180F8E0
:1013C0003D10006841F2FF72C168C4F20002904211
:1013D00041F00101C1600DDC40F2FF71C4F2000177
:1013E000884215DCB0F1804F2AD040F20041C4F2AF
:1013F000000123E040F2FF31C4F20101884213DC16
:1014000041F60001C4F20001884219D0002113E026
:1014100040F60001C4F20001884211D040F60041BC
:10142000C4F200010AE000BF44F20001C4F201016D
:10143000884205D040F20041C4F20101884206D141
:10144000816801F00701062904BF00207047016888
:1014500041F001010160002070470000704700006A
:1014600070B504460068C5680669B10716D515F061
:10147000020113D06FF0020101610121217780691F
:10148000800703D02046FFF7E9FF05E0204600F083
:101490008FF8204600F08EF800202077700719D5CD
:1014A00015F0040016D020686FF0040101610221DC
:1014B0002177806910F4407F04D02046FFF7CEFFEB
:1014C00006E000BF204600F073F8204600F072F8F6
:1014D00000202077300717D515F0080014D02068B9
:1014E0006FF00801016104212177C069800703D0F2
:1014F0002046FFF7B3FF05E0204600F059F82046EC
:1015000000F058F800202077F00619D515F01000EB
:1015100016D020686FF01001016108212177C069A1
:1015200010F4407F04D02046FFF798FF06E000BF8C
:10153000204600F03DF8204600F03CF800202077DF
:10154000F00718BF15F0010002D1300609D412E0EF
:1015500020686FF001010161204600F02DF830068F
:1015600009D515F0800006D020686FF08001016178
:101570002046FFF7E9FE700609D515F0400006D0B9
:1015800020686FF040010161204600F01FF8B006AE
:1015900058BF70BD15F0200008D021686FF0200200
:1015A00020460A61BDE87040FFF7D0BE70BD000064
:1015B000704700007047000000680021C4F201017C
:1015C000884218BF7047FFF7F7B800007047000067
:1015D0007047000070470000B0B582B001680A682B
:1015E000CC684B6902F02F05202D04F0200505D1B1
:1015F00025B102B0BDE8B04001F0ECBE5FEA027C6C
:101600001EBF03F0010E04F4907313EB0E0341D1DF
:10161000036BD50618D5012B16D114F0100313D087
:10162000002201920A6801924A680192019A49696E
:1016300049064BD4818DC28DC38D002B18BF9142BA
:1016400040F0F48102B0B0BD13062DD514F0800334
:101650002AD090F84120212AF4D18268B2F5805F27
:1016600003D10269002A00F06782026A531C0362F8
:1016700012784A60C28C013A1304C284E2D1C8686D
:1016800020F08000C860C86840F04000C86002B028
:10169000B0BD00BFD30718BF14F4807340F0D080F2
:1016A000530700F1D380D8E05206CBD514F04002A6
:1016B000C8D0CA6822F04002CA60202180F84110D8
:1016C00002B0BDE8B04000F07FBB00BFC16B0A684C
:1016D000526893B2002BB5D0858DAB42B2D2C28591
:1016E000C969B1F5807F00F0A080016851E8031F4F
:1016F000026821F4807142E80313DBB1016851E80C
:10170000031F026821F4807142E8031393B101685A
:1017100051E8031F026821F4807142E803134BB1C2
:10172000016851E8031F026821F4807142E8031345
:10173000002BDAD1016851E8051F026821F0010190
:1017400042E80513BBB3016851E8051F026821F0A8
:10175000010142E8051373B3016851E8051F0268EF
:1017600021F0010142E805132BB3016851E8051F80
:10177000026821F0010142E80513002BDAD11AE0DA
:10178000016851E8051F026821F0400142E8051395
:10179000DBB1016851E8051F026821F0400142E811
:1017A000051393B1016851E8051F026821F040015B
:1017B00042E805134BB1016851E8051F026821F0AA
:1017C000400142E80513002BDAD1202180F84210B5
:1017D00000210163016851E8031F026821F0100134
:1017E00042E80313DBB1016851E8031F026821F0EE
:1017F000100142E8031393B1016851E8031F026826
:1018000021F0100142E803134BB1016851E8031FB6
:10181000026821F0100142E80313002BDAD1C16BFA
:1018200004460846FEF778FE204602214163818D7A
:10183000C28D891A89B202B0BDE8B040FFF7C8BEB8
:10184000436C43F001034364530706D5BEF1000F18
:1018500003D0436C43F002034364930706D5BEF103
:10186000000F03D0436C43F004034364BCF1000F4A
:1018700006D55EEA050303D0436C43F008034364D6
:10188000436C002B3FF4DEAE920605D525B104462D
:1018900001F0A0FD216820464969426C01F0400139
:1018A00002F00802891800F0B98000BF016851E811
:1018B000031F026821F4907142E80313BBB301686F
:1018C00051E8031F026821F4907142E8031373B3D7
:1018D000016851E8031F026821F4907142E8031384
:1018E0002BB3016851E8031F026821F4907142E8AC
:1018F0000313002BDAD11AE0016851E8051F0268D2
:1019000021F0010142E80513DBB1016851E8051F30
:10191000026821F0010142E8051393B1016851E822
:10192000051F026821F0010142E805134BB101686F
:1019300051E8051F026821F0010142E80513002B60
:10194000DAD1016B012924D1016851E8031F026833
:1019500021F0100142E80313DBB1016851E8031FD5
:10196000026821F0100142E8031393B1016851E8C5
:10197000031F026821F0100142E803134BB1016814
:1019800051E8031F026821F0100142E80313002B05
:10199000DAD1202180F842100021016301684969F1
:1019A000490640F1C380016851E8051F026821F033
:1019B000400142E80513DBB1016851E8051F0268E8
:1019C00021F0400142E8051393B1016851E8051F79
:1019D000026821F0400142E805134BB1016851E86B
:1019E000051F026821F0400142E80513002BDAD1FF
:1019F000C16B002900F09A8043F2C932C0F60002A0
:101A0000044608460A65FEF7CFFD00283FF41AAEEB
:101A1000E06B016D02B0BDE8B04008470446FFF737
:101A2000D9FD0020606402B0B0BD00BF891A00BFBC
:101A3000026852E8032F036822F4907243E80325FA
:101A4000BDB3026852E8032F036822F4907243E8A2
:101A5000032575B3026852E8032F036822F49072DD
:101A600043E803252DB3026852E8032F036822F4EC
:101A7000907243E80325002DDAD11AE0026852E89B
:101A8000052F036822F0010243E80525DDB1026855
:101A900052E8052F036822F0010243E8052595B1BD
:101AA000026852E8052F036822F0010243E8052589
:101AB0004DB1026852E8052F036822F0010243E8A5
:101AC0000525002DDAD1202280F842200022026371
:101AD000026852E8032F036822F0100243E803254E
:101AE000DDB1026852E8032F036822F0100243E8D8
:101AF000032595B1026852E8032F036822F0100213
:101B000043E803254DB1026852E8032F036822F031
:101B1000100243E80325002DDAD1022289B2426384
:101B200002B0BDE8B040FFF753BD00BF02B0BDE852
:101B3000B040FFF74FBD00BF026A32F8023B6FF3BF
:101B40005F234B60026295E5002804BF01207047C7
:101B500010B5044690F8410028B9002084F84000F0
:101B6000204600F021F8242084F841002068C16854
:101B700021F40051C160204601F0ACFC20680169ED
:101B800021F490410161416921F02A014161C1685C
:101B900041F40051C16000202021606484F84110AC
:101BA00084F84210606310BD80B586B041F2000138
:101BB0000068C4F20101002288420592CDE90322A7
:101BC0000292019202D006B080BD00BF43F6300001
:101BD0000092C4F20200436943F010034361436979
:101BE00003F010030093009B0092036843F001038D
:101BF0000360006800F00100009000984FF4C0609E
:101C000001900220CDE902020320049007200590F4
:101C100001F5704001A9FEF7EDFC25200521002209
:101C2000FEF77EFE2520FEF769FE06B080BD0000AF
:101C3000704700002DE9F04381B0044690F8410060
:101C4000202809D100294FF0010018BF002A07D130
:101C500001B0BDE8F08300BF022001B0BDE8F08311
:101C60000020606421201D460E4684F8410017467E
:101C7000FEF79CFDA784E784A1688146B1F5805FEB
:101C800002D1206900285DD037460020E28C21680F
:101C9000002A5DD06A1C24D0002D4AD0804600BFA7
:101CA0000868000608D4FEF781FDA0EB0900A842F1
:101CB0007AD82168C868F3E717B117F8010B04E078
:101CC00038F8020B00276FF35F204860E08C013882
:101CD000E084E08C0028E3D13AE000BF0A681206F5
:101CE00009D40A68120606D40A6812065CBF0A689C
:101CF0005FEA0262F2D51FB117F8012B05E000BFC1
:101D000030F8022B00276FF35F224A60E28C013A21
:101D1000E284E28C002AE4D11AE000BF30F8022B02
:101D200000276FF35F224A60E28C013AE284E28C82
:101D300072B10A68120635D5002FEFD017F8012BC3
:101D4000F1E700BF00273046E28C2168002AA1D1CC
:101D5000086840061ED42DB3681C14D108684006DC
:101D60002AD40868400627D40868400624D40868A6
:101D700040064FF00000F1D50DE000BF2068C168BB
:101D80000068400618D4FEF711FDA0EB0900A84238
:101D9000F4D909E00020202184F8411001B0BDE809
:101DA000F08300BFFEF702FD0320202184F84110DC
:101DB00001B0BDE8F08300BF0020202184F841106D
:101DC00001B0BDE8F083000070470000FEE70000AE
:101DD0002DE9F04F81B00FF6206004F01DF940F6B8
:101DE0000044C4F2020420464FF480710122FEF741
:101DF000D7FCA4F5006528464FF4006100220027B7
:101E0000FEF7CEFC0A204FF00A0AFEF7DFFB284659
:101E10004FF400610122FEF7C3FC40F2600040F283
:101E20004011C2F20000C0F2E0110160E0208DF824
:101E3000030028464FF480510022FEF7B1FC2046F3
:101E40004FF480710022FEF7ABFC40F2D416C2F2D0
:101E500000060DF10301304601220123FFF736F998
:101E600020464FF480710122FEF79AFC28464FF479
:101E7000805101228DF80370FEF792FC20464FF44A
:101E800080710022FEF78CFC0DF103013046012227
:101E90000123FFF71BF920464FF480710122FEF762
:101EA0007FFC4FF0030928464FF4805101228DF842
:101EB0000390FEF775FC20464FF480710022FEF778
:101EC0006FFC0DF10301304601220123FFF7FEF8FC
:101ED00020464FF480710122FEF762FC4FF00908A2
:101EE00028464FF4805101228DF80380FEF758FCFC
:101EF00020464FF480710022FEF752FC0DF10301E1
:101F0000304601220123FFF7E1F820464FF48071AB
:101F10000122FEF745FC082728464FF48051012294
:101F20008DF80370FEF73CFC20464FF480710022D0
:101F3000FEF736FC0DF10301304601220123FFF7C5
:101F4000C5F820464FF480710122FEF729FC4FF0BE
:101F5000160B28464FF4805101228DF803B0FEF78E
:101F60001FFC20464FF480710022FEF719FC0DF192
:101F70000301304601220123FFF7A8F820464FF461
:101F800080710122FEF70CFC28464FF4805101229B
:101F90008DF803A0FEF704FC20464FF48071002268
:101FA000FEF7FEFB0DF10301304601220123FFF78E
:101FB0008DF820464FF480710122FEF7F1FB3F209F
:101FC0008DF8030028464FF480510122FEF7E8FB0C
:101FD00020464FF480710022FEF7E2FB0DF1030171
:101FE000304601220123FFF771F820464FF480713B
:101FF0000122FEF7D5FB78208DF8030028464FF428
:1020000080510122FEF7CCFB20464FF48071002264
:10201000FEF7C6FB0DF10301304601220123FFF755
:1020200055F820464FF480710122FEF7B9FB4C2091
:102030008DF8030028464FF480510122FEF7B0FBD3
:1020400020464FF480710022FEF7AAFB0DF1030138
:10205000304601220123FFF739F820464FF4807102
:102060000122FEF79DFB28464FF4805101228DF896
:102070000380FEF795FB20464FF480710022FEF7A7
:102080008FFB0DF10301304601220123FFF71EF8FB
:1020900020464FF480710122FEF782FB28464FF460
:1020A000805101228DF803A0FEF77AFB20464FF401
:1020B00080710022FEF774FB0DF10301304601220E
:1020C0000123FFF703F820464FF480710122FEF749
:1020D00067FB28464FF4805101228DF80370FEF70C
:1020E0005FFB20464FF480710022FEF759FB0DF193
:1020F0000301304601220123FEF7E8FF20464FF49A
:1021000080710122FEF74CFB28464FF480510122DA
:102110008DF803B0FEF744FB20464FF48071002297
:10212000FEF73EFB0DF10301304601220123FEF7CD
:10213000CDFF20464FF480710122FEF731FB1A20BB
:102140008DF8030028464FF480510122FEF728FB4A
:1021500020464FF480710022FEF722FB0DF10301AF
:10216000304601220123FEF7B1FF20464FF4807173
:102170000122FEF715FB4FF00F0A28464FF480515D
:1021800001228DF803A0FEF70BFB20464FF480716F
:102190000022FEF705FB0DF1030130460122012369
:1021A000FEF794FF20464FF480710122FEF7F8FA03
:1021B000E1208DF8030028464FF480510022FEF7FD
:1021C000EFFA20464FF480710022FEF7E9FA0DF194
:1021D0000301304601220123FEF778FF20464FF429
:1021E00080710122FEF7DCFA002728464FF4805167
:1021F00001228DF80370FEF7D3FA20464FF4807168
:102200000022FEF7CDFA0DF1030130460122012331
:10221000FEF75CFF20464FF480710122FEF7C0FA02
:1022200028464FF4805101228DF803B0FEF7B8FA2A
:1022300020464FF480710022FEF7B2FA0DF103013F
:10224000304601220123FEF741FF20464FF4807102
:102250000122FEF7A5FA19208DF8030028464FF455
:1022600080510122FEF79CFA20464FF48071002233
:10227000FEF796FA0DF10301304601220123FEF725
:1022800025FF20464FF480710122FEF789FA284687
:102290004FF4805101228DF80390FEF781FA204619
:1022A0004FF480710022FEF77BFA0DF103013046F6
:1022B00001220123FEF70AFF20464FF4807101221C
:1022C000FEF76EFA28464FF4805101228DF803A0E4
:1022D000FEF766FA20464FF480710022FEF760FA9E
:1022E0000DF10301304601220123FEF7EFFE2046E7
:1022F0004FF480710122FEF753FA05208DF8030098
:1023000028464FF480510122FEF74AFA20464FF446
:1023100080710022FEF744FA0DF1030130460122DC
:102320000123FEF7D3FE20464FF480710122FEF711
:1023300037FA32208DF8030028464FF480510122ED
:10234000FEF72EFA20464FF480710022FEF728FA9D
:102350000DF10301304601220123FEF7B7FE2046AE
:102360004FF480710122FEF71BFA45208DF803001F
:1023700028464FF480510122FEF712FA20464FF40E
:1023800080710022FEF70CFA0DF1030130460122A4
:102390000123FEF79BFE20464FF480710122FEF7D9
:1023A000FFF946208DF8030028464FF480510122A2
:1023B000FEF7F6F920464FF480710022FEF7F0F99F
:1023C0000DF10301304601220123FEF77FFE204676
:1023D0004FF480710122FEF7E3F904208DF8030029
:1023E00028464FF480510122FEF7DAF920464FF4D7
:1023F00080710022FEF7D4F90DF10301304601226D
:102400000123FEF763FE20464FF480710122FEF7A0
:10241000C7F90E208DF8030028464FF480510122A1
:10242000FEF7BEF920464FF480710022FEF7B8F99E
:102430000DF10301304601220123FEF747FE20463D
:102440004FF480710122FEF7ABF90D208DF80300E7
:1024500028464FF480510122FEF7A2F920464FF49E
:1024600080710022FEF79CF90DF103013046012234
:102470000123FEF72BFE20464FF480710122FEF768
:102480008FF935208DF8030028464FF48051012242
:10249000FEF786F920464FF480710022FEF780F99E
:1024A0000DF10301304601220123FEF70FFE204605
:1024B0004FF480710122FEF773F937208DF8030085
:1024C00028464FF480510122FEF76AF920464FF466
:1024D00080710022FEF764F90DF1030130460122FC
:1024E0000123FEF7F3FD20464FF480710122FEF731
:1024F00057F928464FF4805101228DF803A0FEF7CA
:102500004FF920464FF480710022FEF749F90DF192
:102510000301304601220123FEF7D8FD20464FF487
:1025200080710122FEF73CF9C0208DF80300284697
:102530004FF480510022FEF733F920464FF48071AA
:102540000022FEF72DF90DF103013046012201238F
:10255000FEF7BCFD20464FF480710122FEF720F902
:1025600017208DF8030028464FF480510122FEF712
:1025700017F920464FF480710022FEF711F90DF192
:102580000301304601220123FEF7A0FD20464FF44F
:1025900080710122FEF704F915208DF8030028460A
:1025A0004FF480510122FEF7FBF820464FF4807172
:1025B0000022FEF7F5F80DF1030130460122012358
:1025C000FEF784FD20464FF480710122FEF7E8F803
:1025D000C1208DF8030028464FF480510022FEF7F9
:1025E000DFF820464FF480710022FEF7D9F80DF194
:1025F0000301304601220123FEF768FD20464FF417
:1026000080710122FEF7CCF841208DF803002846A6
:102610004FF480510122FEF7C3F820464FF4807139
:102620000022FEF7BDF80DF103013046012201231F
:10263000FEF74CFD20464FF480710122FEF7B0F802
:10264000C5208DF8030028464FF480510022FEF784
:10265000A7F820464FF480710022FEF7A1F80DF193
:102660000301304601220123FEF730FD20464FF4DE
:1026700080710122FEF794F828464FF48051012220
:102680008DF803704FF00008FEF78AF820464FF4EB
:1026900080710022FEF784F80DF10301304601221B
:1026A0000123FEF713FD20464FF480710122FEF74F
:1026B00077F812208DF8030028464FF4805101224C
:1026C000FEF76EF820464FF480710022FEF768F89E
:1026D0000DF10301304601220123FEF7F7FC2046ED
:1026E0004FF480710122FEF75BF8802728464FF4F3
:1026F000805101228DF80370FEF752F820464FF406
:1027000080710022FEF74CF80DF1030130460122E2
:102710000123FEF7DBFC20464FF480710122FEF717
:102720003FF836208DF8030028464FF480510022F0
:10273000FEF736F820464FF480710022FEF730F89D
:102740000DF10301304601220123FEF7BFFC2046B4
:102750004FF480710122FEF723F848208DF8030022
:1027600028464FF480510122FEF71AF820464FF414
:1027700080710022FEF714F80DF1030130460122AA
:102780000123FEF7A3FC20464FF480710122FEF7DF
:1027900007F83A208DF8030028464FF480510022B4
:1027A000FDF7FEFF20464FF480710022FDF7F8FF91
:1027B0000DF10301304601220123FEF787FC20467C
:1027C0004FF480710122FDF7EBFF66208DF80300C6
:1027D00028464FF480510122FDF7E2FF20464FF4D6
:1027E00080710022FDF7DCFF0DF10301304601226C
:1027F0000123FEF76BFC20464FF480710122FDF7A8
:10280000CFFFB0208DF8030028464FF480510022FE
:10281000FDF7C6FF20464FF480710022FDF7C0FF90
:102820000DF10301304601220123FEF74FFC204643
:102830004FF480710122FDF7B3FF28464FF4805119
:1028400001228DF80370FDF7ABFF20464FF4807135
:102850000022FDF7A5FF0DF10301304601220123FF
:10286000FEF734FC20464FF480710122FDF798FFFB
:10287000B1208DF8030028464FF480510022FDF767
:102880008FFF20464FF480710022FDF789FF0DF184
:102890000301304601220123FEF718FC20464FF4C5
:1028A00080710122FDF77CFFA0208DF803002846EF
:1028B0004FF480510122FDF773FF20464FF48071E1
:1028C0000022FDF76DFF0DF10301304601220123C7
:1028D000FEF7FCFB20464FF480710122FDF760FFFC
:1028E000B4208DF8030028464FF480510022FDF7F4
:1028F00057FF20464FF480710022FDF751FF0DF184
:102900000301304601220123FEF7E0FB20464FF48D
:1029100080710122FDF744FF022728464FF48051C1
:1029200001228DF80370FDF73BFF20464FF48071C4
:102930000022FDF735FF0DF103013046012201238E
:10294000FEF7C4FB20464FF480710122FDF728FFFB
:10295000B6208DF8030028464FF480510022FDF781
:102960001FFF20464FF480710022FDF719FF0DF183
:102970000301304601220123FEF7A8FB20464FF455
:1029800080710122FDF70CFF28464FF4805101228F
:102990008DF80370FDF704FF20464FF4807100228C
:1029A000FDF7FEFE0DF10301304601220123FEF783
:1029B0008DFB20464FF480710122FDF7F1FE284681
:1029C0004FF4805101228DF80370FDF7E9FE204697
:1029D0004FF480710022FDF7E3FE0DF10301304654
:1029E00001220123FEF772FB20464FF48071012281
:1029F000FDF7D6FEE9208DF8030028464FF48051FC
:102A00000022FDF7CDFE20464FF480710022FDF735
:102A1000C7FE0DF10301304601220123FEF756FBEC
:102A200020464FF480710122FDF7BAFE28464FF48C
:102A3000805101228DF80380FDF7B2FE20464FF44D
:102A400080710022FDF7ACFE0DF10301304601223A
:102A50000123FEF73BFB20464FF480710122FDF776
:102A60009FFEF7208DF8030028464FF48051002286
:102A7000FDF796FE20464FF480710022FDF790FE90
:102A80000DF10301304601220123FEF71FFB204612
:102A90004FF480710122FDF783FEA9208DF8030019
:102AA00028464FF480510122FDF77AFE20464FF46C
:102AB00080710022FDF774FE0DF103013046012202
:102AC0000123FEF703FB20464FF480710122FDF73E
:102AD00067FE51208DF8030028464FF480510122F3
:102AE000FDF75EFE20464FF480710022FDF758FE90
:102AF0000DF10301304601220123FEF7E7FA2046DB
:102B00004FF480710122FDF74BFE2C208DF803005D
:102B100028464FF480510122FDF742FE20464FF433
:102B200080710022FDF73CFE0DF1030130460122C9
:102B30000123FEF7CBFA20464FF480710122FDF706
:102B40002FFE82208DF8030028464FF48051012289
:102B5000FDF726FE20464FF480710022FDF720FE8F
:102B60000DF10301304601220123FEF7AFFA2046A2
:102B70004FF480710122FDF713FE11208DF8030040
:102B800028464FF480510022FDF70AFE20464FF4FC
:102B900080710022FDF704FE0DF103013046012291
:102BA0000123FEF793FA20464FF480710122FDF7CE
:102BB000F7FD7820FDF70AFD29208DF8030028464F
:102BC0004FF480510022FDF7EBFD20464FF4807159
:102BD0000022FDF7E5FD0DF103013046012201233E
:102BE000FEF774FA20464FF480710122FDF7D8FDFC
:102BF00001B0BDE8F08F00BF4C434420696E69749A
:102C000069616C20737461727400000070B5ACB0BF
:102C100046F23C00C0F6000090E81E50229400F1FD
:102C20002004D0E906561F91209221931ECC006B00
:102C3000CDF88CC00DF19C0C8CE81E0033492B9014
:102C400032A0CDE92556061D12914ECE159300F106
:102C50002403CDF890E000F1140E046A139114924D
:102C60000ECB006BCDE91A4135491E9034A0169663
:102C7000061D9EE82050CDE91C2305914ECECDE9DE
:102C800018CE00F1140E046A089300F12403006BBF
:102C9000069107920ECB119036A0CDE90F23CDE916
:102CA0000D41C268D0E901101795CDE90302314802
:102CB0009EE82050CDE9010101A809960A95CDE9C9
:102CC0000BCE00F01BFE40F2BC04C2F200042060F8
:102CD00043F20130C0F600001FAA002100F048FEB8
:102CE000606043F28130C0F6000012AA002100F0BB
:102CF0003FFEA06043F2C130C0F6000005AA0021EB
:102D000000F036FEE0602CB070BD00BF9C60000893
:102D100000000000000000000000000000000000B3
:102D2000000400002A000000000000000000000075
:102D30000000000000000000000000000000000093
:102D4000A260000800000000000000000000000079
:102D50000000000000040000290000000000000046
:102D60000000000000000000000000000000000063
:102D700000000000A8600008000000000000000043
:102D8000000000002DE9F04F87B0002443F630002A
:102D90000694CDE90444CDE902440194C4F2020052
:102DA0000168002641F0800101600168C4F202065A
:102DB00001F080010191019901940168002241F024
:102DC00001010160016801F0010101910199019483
:102DD000016841F002010160016801F00201019106
:102DE00001990194016841F0080101600068F02137
:102DF00000F00800019001983046FDF7D1FC06F57F
:102E0000806840464FF4C05100224FF4C059FDF78E
:102E1000C7FC06F5406528464FF4807100224FF448
:102E2000807AFDF7BDFCC02002AF02904FF0010B8D
:102E300030463946CDE903B40594FDF7DBFB30207D
:102E4000CDE9020430463946CDE90444FDF7D2FB12
:102E5000402002904FF48810CDE9030430463946F3
:102E6000FDF7C8FB40463946CDE9029BCDE9044455
:102E7000FDF7C0FB28463946CDE902ABCDE9044455
:102E8000FDF7B8FB07B0BDE8F08F000080B540F259
:102E9000D41043F60001C2F20000C4F200014FF466
:102EA000827200234FF4007C80E80E000A21C0E902
:102EB0000333C0E9053CC361C0E90833C0E90A3106
:102EC000FEF770F8002808BF80BDBDE88040FDF720
:102ED000B5BA000080B540F2742041F20001C2F2A0
:102EE0000000C4F2010100234FF00C0C4FF4E1325A
:102EF00080E80E00C0E90333C0E905C3C361FEF7F3
:102F000023FE002808BF80BDBDE88040FDF796BACB
:102F1000FEE70000FEE700000000000000000000E7
:102F2000EFF30980BFF36F8F154B1A681EF0100F77
:102F300008BF20ED108A20E9F04F10602DE909004C
:102F40004FF0500080F31188BFF34F8FBFF36F8FA6
:102F500001F016FF4FF0000080F31188BDE8090072
:102F600019680868B0E8F04F1EF0100F08BFB0EC09
:102F7000108A80F30988BFF36F8F704700BF00BFCE
:102F8000CC0000202DE9F04381B0089C98461546FE
:102F90000E468146FDF70AFC201A00EB0804FDF7F7
:102FA00005FC40F25401C2F200010968C1F3CB31C3
:102FB00061430091D9F800108A683240921BB2FA3E
:102FC00082F25209AA423DD0074618F1010031D0E1
:102FD000FDF7ECFBC01BA04238D2009800990028F6
:102FE000A1F101010091D9F80010896808BF0446D9
:102FF00001EA0600801BB0FA80F04009A842E7D140
:1030000020E000BF88683040801BB0FA80F04009A3
:10301000A84217D088683040801BB0FA80F0400981
:10302000A8420FD088683040801BB0FA80F0400979
:10303000A84207D088683040801BB0FA80F0400971
:10304000A842DFD1002001B0BDE8F083D9E900013A
:103050004268B1F5827F22F0E00242600BD1D9F8DC
:103060000810B1F5004F02D0B1F5806F03D10168AF
:1030700021F040010160D9F82810B1F5005F07D1B7
:10308000016821F400510160016841F400510160C0
:10309000012089F85100002089F85000032001B078
:1030A000BDE8F08300000000000000000000000008
:1030B000074B19680868B0E8F04F80F30988BFF340
:1030C0006F8F4FF0000080F31188704700BF00BF82
:1030D000CC00002080B54EF21000CEF20000006857
:1030E00002F0ECFB012808BF80BDBDE8804001F084
:1030F0009BBF000070B592B006AC20463021FDF7B2
:10310000A9F8002543F640000595CDE90355CDE922
:1031100001550095C4F202000168022641F0805179
:103120000160006800F080500090009847F20000B5
:103130000095C4F20000016841F48041016000681C
:10314000A82100F4804000900098012006904FF4E0
:10315000803007904FF480000D9004200E90119065
:1031600020460C96CDE90F16FDF746FD10B172B65C
:10317000FEE700BF0F20CDE901064FF4A0500490F8
:103180004FF48050059001A805210395FDF704FC3C
:1031900010B172B6FEE700BF12B070BD4EF6885097
:1031A000CEF20000016841F4700101607047000038
:1031B00040F22C20C2F20000FEF752B910B540F6E2
:1031C000FF3E0368C4F2000E40F2004C7045C4F2AA
:1031D000010C25DCB0F1804F2FD040F20042C4F248
:1031E0000002904229D040F60002C4F20002904250
:1031F00023D041F6FF72C4F20002904227DC7045F2
:103200003ADCB0F1804F5BD040F20042C4F20002E1
:10321000904255D040F60002C4F200024EE000BFDA
:1032200040F60042C4F20002904206D0604504D04D
:103230000022C4F201029042DBD14A6823F07003FD
:10324000134341F6FF72C4F200029042D7DD43F609
:10325000FF72C4F20102904220DC42F20002C4F28A
:10326000000290422CD00022C4F20102904227D0EA
:10327000604525D028E000BF40F60042C4F20002BD
:1032800090421DD041F60002C4F20002904217D0D5
:1032900041F60042C4F2000210E000BF44F2000216
:1032A000C4F2010290420BD044F60002C4F20102C3
:1032B000904205D044F20042C4F20102904203D190
:1032C000CA6823F44073134323F080024B69D1F89A
:1032D00000E08C681A430260C46240F48062C0F867
:1032E00028E0624504BF0969016301214161016968
:1032F000C90708BF10BD016921F00101016110BDBE
:1033000002F0ECFA014646F28800C0F6000002F036
:10331000C1FCFCF7F7FF012817D146F288050DA480
:10332000C0F6000502F0DAFA0146204602F0B2FCCF
:10333000032000F0A1FA02F0D1FA0146284602F07B
:10334000A9FCFCF7DFFF0128ECD007A4204602F01F
:1033500063FEFBE725356420496E205461736B31B1
:1033600020456E640A0000004572726F7220696E1B
:103370002062616C6C206D6F766521212100000058
:1033800000240120C4F202040AA500BF80F0010657
:10339000C2B220468021FDF703FA20464021FDF706
:1033A000F9F90146284602F075FC122000F064FA93
:1033B0003046EBE7427574746F6E2025640A000096
:1033C0002C2000F059FAFBE7806B0021C185C184F5
:1033D000FEF700B981B090F84210222921D183680C
:1033E0000246B3F5805F09D152F8281F52F8183C05
:1033F000002B63D003685B680AE000BF52F8281F07
:1034000013B90369002BF5D003685B6803F07F03F1
:103410000B70116801311160C18D01390A04C18539
:1034200002D001B0704700BF0168CA6822F02002D4
:10343000CA60CA6822F48072CA604A6922F0010236
:103440004A61202180F8421000214163026B012A69
:103450003CD10163016851E8031F026821F01001AB
:1034600042E80313DBB1016851E8031F026821F051
:10347000100142E8031393B1016851E8031F026889
:1034800021F0100142E803134BB1016851E8031F1A
:10349000026821F0100142E80313002BDAD1016821
:1034A0000A68D20606D5002200920A68009249688E
:1034B00000910099818D01B0FEF78AB802685268C8
:1034C0006FF35F2221F8022B8162A5E701B0FEF7BE
:1034D000AFBB0000B0B50446006804F108030ECB92
:1034E0000569194325F440552A4302616269E3697D
:1034F0001143C268194349F20C639A431143C160F6
:103500004169A26921F4407141F20043114340F442
:103510008062C4F201039A42416103D1FDF722FBAC
:1035200002E000BFFDF70AFBE1694FF69C75636896
:103530001922C0F6FF75B1F5004FA0FB02011FD1A3
:103540005A00DB0FFCF73CFE48F21F51C5F2EB11AD
:10355000A0FB01235A0905F1805302FB030032232B
:1035600003EBC000A0FB01014FF4F87000EA11105A
:1035700000EB0210C1F34211084421688860B0BD1D
:103580009A009B0FFCF71CFE48F21F51C5F2EB118D
:10359000A0FB01235A0902FB0500322303EB0010B4
:1035A000A0FB0101F02000EA511000EB0210C1F372
:1035B0004311084421688860B0BD000040F27420C7
:1035C000C2F20000FEF708B8FEE700002DE9F04166
:1035D000ADF5407D40F26006C2F200063788B84281
:1035E00080F2B8807688B14280F2B4801518BD426E
:1035F000C8BF3A1A5F18B742C8BF731A17460244C9
:103600001E460B44013A013BC69C92B29BB280B26B
:1036100089B200F057FFF820FC214FF6005300EA72
:10362000142001EAD401E200CFF6FF736C4600BF1C
:10363000E518303385F8000385F8011385F8022377
:1036400085F8030385F8041385F8052385F8060338
:1036500085F8071385F8082385F8090385F80A1308
:1036600085F80B2385F80C0385F80D1385F80E23D8
:1036700085F80F0385F8101385F8112385F81203D8
:1036800085F8131385F8142385F8150385F81613A8
:1036900085F8172385F8180385F8191385F81A2378
:1036A00085F81B0385F81C1385F81D2385F81E0378
:1036B00085F81F1385F8202385F8210385F8221348
:1036C00085F8232385F8240385F8251385F8262318
:1036D00085F8270385F8281385F8292385F82A0318
:1036E00085F82B1385F82C2385F82D0385F82E13E8
:1036F00085F82F239CD140F60048C4F20208A8F5B3
:1037000000604FF48051012216FB07F7FDF748F8DF
:1037100040464FF480710022FDF742F8A7B140F215
:10372000D415C2F200056E464FF48074B7F5807F61
:1037300038BF3C4604EB4402284631464FF0FF3385
:10374000FDF7C4FC3F1BEFD140464FF480710122CE
:10375000FDF726F80DF5407DBDE8F08180B582B01B
:1037600040F26001C2F20001B1F90020B1F902306B
:10377000844600200021CDF800C0FFF727FF02B0EB
:1037800080BD000080B582B0019040F27420C2F28A
:10379000000001A901224FF6FF73FEF74BFA0198D2
:1037A00002B080BDFDF716F8FFF7A4FCFFF7EAFAB8
:1037B000FFF790FBFFF76AFB12A002F02DFCFEF76B
:1037C00007FB19A002F028FC4FF47A70FCF7FEFE0C
:1037D0001BA002F021FC012000F026FF1DA002F03A
:1037E0001BFC4FF6FF70FFF7B9FF1EA002F052FA64
:1037F000FCF728FE00F050F8FFF708FA00F060F838
:10380000FEE700BF535049205553415254204750C2
:10381000494F20696E697469616C207375636365D3
:10382000737366756C2121004C434420696E697482
:1038300069616C207375636365737366756C0000F2
:1038400053657474696E6720526F746174696F6E2A
:10385000212100004C43442054657374205374614B
:10386000727400004C4344205465737420636F6D80
:10387000706C6574650A2000EFF3058100291CBF98
:103880006FF005007047002804BF0020704780B526
:1038900001F00EF9002080BDEFF3058000281CBF69
:1038A0006FF00500704740F2D010C2F200000168CE
:1038B000002911BF4FF0FF30012101600020704747
:1038C000EFF3058000281CBF6FF00500704740F241
:1038D000D010C2F20000016801291CBF4FF0FF3078
:1038E000704780B54EF61F51CEF2000100220A70DB
:1038F0000221016001F0A6F9002080BDB0B5EFF310
:10390000058109B10020B0BD90B142681107F9D41A
:10391000D0E9021341B1502BF4D30446D0071BD198
:10392000012001F0D1FB07E0002BEBD1D10719D129
:103930000446012001F090FB00250028E2D0002C75
:1039400014BF21680021044601F05CF8002D0CBF73
:10395000204644F00100B0BD042001F0B5FB012574
:10396000EBE700BF0446042001F076FB0125E4E705
:10397000F0B585B08C4600230493EFF30581B8B30E
:10398000B1BB2AB39469002C08BF1824382C2FD857
:103990001179C9072CD15669D2E902574FEA960E20
:1039A0001168002E734608BF4FF47A6325B35C2F6D
:1039B00026D312690023002A18BF002E18D0CDE9A3
:1039C000004272466346029501F03CFF05B0F0BD2F
:1039D0004FF47A631824002104AF9AB26346CDE90C
:1039E000004701F0FFFE00230499012808BF0B46A1
:1039F000184605B0F0BD00BF17B91269002AEBD018
:103A00000023184605B0F0BD2DE9F04140F2CC0688
:103A1000C2F200060446C16A3068C26AA0A002F081
:103A200039F900F035FFF06840F2AC350130F06054
:103A30003068C2F2000558B13069002840F00781B3
:103A40003068E16AC06A884298BF3460FFE000BF16
:103A50003460F068012840F0FA80284600F0BEFE8D
:103A600005F1140000F0BAFE05F1280000F0B6FEE2
:103A700005F13C0000F0B2FE05F1500000F0AEFE92
:103A800005F1640000F0AAFE05F1780000F0A6FE42
:103A900005F18C0000F0A2FE05F1A00000F09EFEF2
:103AA00005F1B40000F09AFE05F1C80000F096FEA2
:103AB00005F1DC0000F092FE05F1F00000F08EFE52
:103AC00005F5827000F08AFE05F58C7000F086FE28
:103AD00005F5967000F082FE05F5A07000F07EFE00
:103AE00005F5AA7000F07AFE05F5B47000F076FED8
:103AF00005F5BE7000F072FE05F5C87000F06EFEB0
:103B000005F5D27000F06AFE05F5DC7000F066FE87
:103B100005F5E67000F062FE05F5F07000F05EFE5F
:103B200005F5FA7000F05AFE05F5027000F056FE39
:103B300005F5077000F052FE05F50C7000F04EFE22
:103B400005F5117000F04AFE05F5167000F046FE0E
:103B500005F51B7000F042FE05F5207000F03EFEFA
:103B600005F5257000F03AFE05F52A7000F036FEE6
:103B700005F52F7000F032FE05F5347000F02EFED2
:103B800005F5397000F02AFE05F53E7000F026FEBE
:103B900005F5437000F022FE05F5487000F01EFEAA
:103BA00005F54D7000F01AFE05F5527000F016FE96
:103BB00005F5577000F012FE05F55C7000F00EFE82
:103BC00005F5617000F00AFE05F5667000F006FE6E
:103BD00005F56B7000F002FE05F5707000F0FEFD5B
:103BE00005F5757000F0FAFD05F57A7000F0F6FD48
:103BF00005F57F7000F0F2FD05F5826000F0EEFD46
:103C000005F2244000F0EAFD05F5876000F0E6FDCE
:103C100005F24C4000F0E2FD40F2A818C2F20008A4
:103C2000404600F0DBFD08F11407384600F0D6FDF1
:103C300006F1640000F0D2FD06F13C0000F0CEFD7C
:103C400006F1500000F0CAFDC6F81C8037627068AB
:103C5000716A421CE06A72608842626488BF706266
:103C600000EB800005EB8000211D00F0F9FD00F065
:103C700033FE306988B13068E16AC06A884228BF83
:103C8000BDE8F0814EF60450CEF200004FF08051B6
:103C90000160BFF34F8FBFF36F8FBDE8F08100BFAE
:103CA0007072764164644E65775461736B546F52E1
:103CB000656164794C697374204E657720256C7555
:103CC0002C2043757220256C750A000040F2CC054B
:103CD00040F2AC364EF60458C2F20005C2F20006BD
:103CE000CEF200084FF0805703E000BF204600F0FE
:103CF0000BFEA868D0B100F0CBFDA86CC468201DF5
:103D000000F03EFDE8680138E860A8680138A86066
:103D100000F0E2FD94F859000228EAD00128E5D02D
:103D200070B9206B00F0F0FDE0E700BF30680228BA
:103D3000DFD3C8F80070BFF34F8FBFF36F8FD8E7A2
:103D40004FF0500080F31188BFF36F8FBFF34F8F98
:103D5000FEE700002DE9F0470A9C8246206B1646DC
:103D60000F46DDE908599100A5229846FCF76BFA49
:103D7000206B002F00EB8600A0F1040020F0070666
:103D800044D0387884F83400D8B3787884F8350093
:103D9000B8B3B87884F8360098B3F87884F8370068
:103DA00078B3387984F8380058B3787984F83900D2
:103DB00038B3B87984F83A0018B3F87984F83B003E
:103DC000F8B1387A84F83C00D8B1787A84F83D00AC
:103DD000B8B1B87A84F83E0098B1F87A84F83F0018
:103DE00078B1387B84F8400058B1787B84F8410082
:103DF00038B1B87B84F8420000281CBFF87B84F8F7
:103E00004300002084F8430003E000BF002084F852
:103E100034000027201D372D28BF3725E562C4E96F
:103E2000135700F0E7FC04F1180000F0E3FCC5F1C3
:103E30003800A0613046514642462461646267659D
:103E400084F8587000F02CFBB9F1000F206018BF07
:103E5000C9F80040BDE8F08708480068006880F3B2
:103E600008884FF0000080F3148862B661B6BFF393
:103E70004F8FBFF36F8F00DF00BF000008ED00E041
:103E800081B00020009040F25800C2F200000068AB
:103E90004FF0500181F31188BFF36F8FBFF34F8F45
:103EA000013007D0FEE700BF009830B9009820B974
:103EB000009810B900980028F6D001B070470000B3
:103EC00088B040F2441AC2F2000A0DF11009EB4624
:103ED000DAF8080005681DB1C068046801E000BF99
:103EE000002400F045FF01F0F9FCDAF81010064656
:103EF000884220D3002DCAF8106051D0A6424FD37B
:103F000001F0F6FDDAF80800C068C7683D1D2846D4
:103F100000F036FC97F82800410745D400F0FA007D
:103F200087F8280082E000BF7860DAF808002946A8
:103F30003F6100F063FCDAF80800016831B3C06843
:103F4000C76804683D1D284600F01AFC396A3846E7
:103F5000884797F828004007EDD5B8692044A0426B
:103F6000E2D8DAF80000002800F04081002004A91F
:103F700091C101F0A3FCDAF80000494600220023B9
:103F800001F062F90028D6D130E100BFDAF80C1058
:103F9000CAF81060CAE9021001F0AAFD4FE000BFA4
:103FA00065B1002210E000BFB8693F610119B1425C
:103FB00079601DD90AF108001FE000BFDAF80C0093
:103FC0000068B0FA80F04209DAF80000A11B00F0A6
:103FD00045FD01F08DFD90BB4EF60450CEF2000081
:103FE0004FF080510160BFF34F8FBFF36F8F26E01A
:103FF000311B814206D20AF10C000068294600F00C
:10400000FDFB13E0DAF80000002800F00D8100202D
:1040100004A991C101F052FCDAF8000049460022DF
:10402000002301F011F9002800F0FE80396A3846BB
:10403000884704E00AF10C02106800F0DFFBDAF8B0
:1040400000005946002201F05FFA00283FF440AF1B
:104050000098B0F1FF3F06DCDDE9012003999047AD
:1040600000980028EBD4029E706910B1301D00F05A
:1040700087FB01F033FCDAF81010074688420CD3B6
:104080000098CAF8107009283DD9D8E76860DAF8B6
:10409000080021462D6100F0B1FBDAF80800016844
:1040A00041B3C068C568D0F800802C1D204600F0E0
:1040B00067FB296A2846884795F828004007ECD511
:1040C000A86940444045E1D8DAF80000002800F033
:1040D00083800020CDE90408069501F0EFFBDAF8B3
:1040E000000049460022002301F0AEF80028D4D198
:1040F00072E000BFDAF80C10CAE902100098CAF8A2
:10410000107009289BD8DFE800F005050557415FCE
:104110000505574196F82800B26940F00101019861
:1041200086F828101318314641F8043FBB42366127
:1041300008D987420AF10802BFF47EAF834205D254
:104140007AE700BF381A9042FFF474AF316A304604
:10415000884796F8280040077FF571AFDAF800002D
:1041600000284DD00198B169069608440021CDE998
:10417000041001F0A3FBDAF80000494600220023F6
:1041800001F062F800287FF45AAF39E096F8280071
:1041900040F00101019886F828100028B06139D05C
:1041A000384431460AF10C0241F8040F3661B84236
:1041B00088BF0AF108023FE796F8280000F0FE00E9
:1041C00086F828003BE700BF96F828008107F5D461
:1041D000304600F099FB32E74FF0500080F3118831
:1041E000BFF36F8FBFF34F8FFEE700BF4FF050005C
:1041F00080F31188BFF36F8FBFF34F8FFEE700BFCF
:104200004FF0500080F31188BFF36F8FBFF34F8FD3
:10421000FEE700BF4FF0500080F31188BFF36F8FAF
:10422000BFF34F8FFEE700BF4FF0500080F31188BF
:10423000BFF36F8FBFF34F8FFEE70000F0B581B083
:10424000044600F025FB94F94560012E0FDB04F1D4
:10425000240500BF286850B1284601F00FFC002853
:1042600018BF00F06FFCF0B2013E0128F2D8FF2623
:1042700084F8456000F030FB00F00AFB94F94470CC
:10428000012F0EDB04F11005286850B1284601F01B
:10429000F5FB002818BF00F055FCF8B2013F0128DB
:1042A000F2D884F8446001B0BDE8F04000F014BBDF
:1042B00070B5044600F05CFD40F2801CC2F2000CB8
:1042C000DCF8042052B19CF80000002818BF4FF021
:1042D00000404FF0000544BB81E000BF40F60C00F9
:1042E000C2F20000420700F5C83200F1070122F0D7
:1042F000070218BF21F007000021A2F10803CCE952
:104300000601CCF8043042E90211DCF80420191A45
:10431000C0E9002101208CF800004FF00040CCE9FA
:104320000211002C4FF0000559D0204057D124F045
:10433000070000F11003600708BF04F10803DCF870
:104340000800591E81424AD2604650F818EFDEF844
:1043500004509D422BD2DEF80010B9B174464D686E
:104360009D4217D20E68AEB175689D4216D2306874
:10437000A0B145689D4215D204689CB165689D4214
:1043800014D22168A6460029E9D110E00CF11800EA
:104390000DE000BF8E46204609E000BFB646084645
:1043A00005E000BF8646304601E000BFA6469645C0
:1043B00014D00268DEF80040E91A112904604DD3D8
:1043C0000EEB0305680719D04FF0500080F31188F9
:1043D000BFF36F8FBFF34F8FFEE700BF002501F0E3
:1043E00087FB68075AD04FF0500080F31188BFF365
:1043F0006F8FBFF34F8F00BFFEE700BF0CF11800B7
:104400006960CEF8043000BF0168A9420AD208688A
:10441000A8420BD20168A94204D208680B46A84200
:10442000F2D304E00346084601E000BF0B465C6897
:1044300069681E19AE4202D121441D4659606C18AC
:10444000844207D1DCF80440A04203D0D0E9000444
:1044500021446960AB42286018BF1D60DEF804008B
:10446000DCE9021302F10805091A9942CCF8081098
:1044700038BFCCF80C109CF8001000294FF0000158
:1044800018BF40F00040CEE90010DCF81000013009
:10449000CCF8100001F02CFB6807A4D1284670BDB1
:1044A000034643F6816021F00101C0F600004FF0A1
:1044B000807C03E903106FF00201A3F1440043E99B
:1044C000091270472DE9F04784B040F60044C4F269
:1044D000020406462A20A4F5006517468A468DF890
:1044E0000D0028464FF4805100229946FCF758F9F8
:1044F00020464FF480710022FCF752F940F2D418A4
:10450000C2F200080DF10D01404601220123FCF723
:10451000DDFD20464FF480710122FCF741F9300A9D
:104520008DF80900380A8DF80B0028464FF48051A9
:1045300001228DF80A608DF80C70FCF731F92046E5
:104540004FF480710022FCF72BF90DF10901404670
:1045500004224FF0FF33FCF7B9FD20464FF4807181
:104560000122FCF71DF92B208DF80E0028464FF490
:1045700080510022FCF714F920464FF4807100228C
:10458000FCF70EF90DF10E01404601220123FCF764
:104590009DFD20464FF480710122FCF701F94FEA9E
:1045A0001A208DF805004FEA19208DF807002846DB
:1045B0004FF4805101228DF806A08DF80890FCF789
:1045C000EFF820464FF480710022FCF7E9F80DF176
:1045D0000501404604224FF0FF33FCF777FD2046EB
:1045E0004FF480710122FCF7DBF82C208DF80F00CE
:1045F00028464FF480510022FCF7D2F820464FF4B1
:1046000080710022FCF7CCF80DF10F014046012229
:104610000123FCF75BFD20464FF480710122FCF77B
:10462000BFF804B0BDE8F08770B582B040F6004432
:10463000C4F2020406463620A4F500658DF8030096
:1046400028464FF480510022FCF7AAF820464FF488
:1046500080710022FCF7A4F840F2D410C2F20000EE
:104660000DF1030101220123FCF730FD20464FF438
:1046700080710122FCF794F806F00300DFE800F0F7
:104680000252183C48208DF8040028464FF480510F
:104690000122FCF785F820464FF480710022FCF7D8
:1046A0007FF840F2D410C2F2000001A915E000BF6B
:1046B00088208DF8060028464FF480510122FCF72F
:1046C0006FF820464FF480710022FCF769F840F241
:1046D000D410C2F200000DF1060101220123FCF703
:1046E000F5FC20464FF480710122FCF759F84FF495
:1046F000F0704FF4A07138E0E8208DF807002846EC
:104700004FF480510122FCF74BF820464FF48071A2
:104710000022FCF745F840F2D410C2F200000DF17F
:10472000070114E028208DF8050028464FF4805139
:104730000122FCF735F820464FF480710022FCF787
:104740002FF840F2D410C2F200000DF10501012251
:104750000123FCF7BBFC20464FF480710122FCF7DB
:104760001FF84FF4A0704FF4F07140F26002C2F2F3
:10477000000211805080FBF7BFFE02B070BD000048
:104780000169D0E90132D1F804C09A6084455360D0
:1047900008BF4A60002202610868013808600868A2
:1047A0007047000049F61003C2F2010303604CF2A7
:1047B0000000C2F2010008604FF47A601060704798
:1047C00049F66C43C2F20103036049F66C00C2F281
:1047D000010008604FF48070106070474FF0FF31A7
:1047E000024642F8081F00214260C0E9032201602E
:1047F00070470000002101617047000010B5D1F83A
:1048000000C01CF1010213D000F1080462681368B3
:10481000634511D853681C68644511D85A681468F8
:1048200064450FD854682368A6466345EED90BE06B
:104830000269D2F804E007E09646224604E000BF91
:104840009E4601E096461A46C1F804E0CEF80810EC
:104850008A605160086101680131016010BD00008B
:10486000D0F800C0436808619A68C1E9013251601C
:1048700099600CF10101016070470000DFF80C0045
:10488000016841F4700101607047000088ED00E0AC
:104890004FF0500080F31188BFF36F8FBFF34F8F3D
:1048A00040F25800C2F2000001684A1C026009B1DF
:1048B000704700BF4EF60450CEF2000000680006BC
:1048C00008BF70474FF0500080F31188BFF36F8F1F
:1048D000BFF34F8FFEE7000040F25800C2F2000025
:1048E000016839B10139016018BF7047002080F3B9
:1048F000118870474FF0500080F31188BFF36F8F1D
:10490000BFF34F8FFEE7000070B5002808BF70BDF1
:1049100040F28014C2F20004217850F8042C0029DF
:1049200018BF4FF0004111420ED0A0F108052B68CE
:10493000A3B14FF0500080F31188BFF36F8FBFF326
:104940004F8F00BFFEE700BF4FF0500080F311888B
:10495000BFF36F8FBFF34F8FFEE700BF22EA010165
:1049600040F8041C064600F003FA56F8041CA06840
:104970000844A06004F118000368AB420AD218682A
:10498000A84225D20368AB4204D218681A46A8424E
:10499000F2D301E0024618465368D618AE4202D15F
:1049A0001944154651606B18834206D163689842DA
:1049B00003D0D0E9000319446960AA42286018BFF7
:1049C0001560606901306061BDE8704001F090B829
:1049D0001A465368D618AE42E5D1E1E74EF2100010
:1049E000CEF2000000210160816040F25401C2F269
:1049F000000109684FF0FF3202EB111141600721FD
:104A00000160704749F6C84CC2F2010CDCF8003076
:104A100003B3634653F8082FEAB1634653F8102FE7
:104A2000CAB1634653F8182FAAB1634653F8202F32
:104A30008AB1634653F8282F6AB1634653F8302F82
:104A40004AB15CF8382F002A634608BFC3E900105A
:104A5000704700BF6346C3E90010704770B5154644
:104A60000E460446FFF714FF94F84400FF2804BFE5
:104A7000002084F8440094F84500FF2804BF00207B
:104A800084F84500FFF728FFA06B28B12046BDE859
:104A90007040FFF7D3BB00BF04F1240031462A4623
:104AA00000F092F82046BDE87040FFF7C7BB000059
:104AB00070B588B340F2CC04C2F20004616949B118
:104AC0004FF0500080F31188BFF36F8FBFF34F8F0B
:104AD000FEE700BF6169064601316161A569216891
:104AE00004310846FFF74CFE2068AD19456005D338
:104AF000206A21680431FFF781FE08E0E06921683F
:104B00000431FFF77BFEE06A854238BFE56200F0C2
:104B1000EFFF002818BF70BD4EF60450CEF2000023
:104B20004FF080510160BFF34F8FBFF36F8F70BDA7
:104B300040F2CC01C2F200018A6B026089694160D7
:104B40007047000040F2CC00C2F200000121016376
:104B50007047000070B5D8B140F2CC04C2F2000436
:104B60000D4621681831FFF749FEA6692068043018
:104B7000FFF706FE681C15D02068AD19456019D3F3
:104B8000206A21680431BDE87040FFF737BE00BFDE
:104B90004FF0500080F31188BFF36F8FBFF34F8F3A
:104BA000FEE700BF54F8500B011D2046BDE87040E1
:104BB000FFF756BEE06921680431FFF71FFEE06A87
:104BC000854238BFE56270BDF0B581B0C0B140F23A
:104BD000CC04C2F200040D46216816461831FFF7D6
:104BE0003FFEA76920680430FFF7CAFD96B154F86C
:104BF000500B011D204601B0BDE8F040FFF730BE6C
:104C00004FF0500080F31188BFF36F8FBFF34F8FC9
:104C1000FEE700BF2068ED19456007D3206A2168D0
:104C2000043101B0BDE8F040FFF7E8BDE06921685C
:104C30000431FFF7E3FDE06A854238BFE56201B069
:104C4000F0BD000010B588B03BA001F0E5F90020F0
:104C5000CDE9050006A805A904AAFFF7A3FD05985C
:104C6000002841D0069C002C48D05C21049A079172
:104C700007995C294CD107992063022084F85900D8
:104C800007A80021CDE9001043F6CD40C0F6000092
:104C90002EA100230294FFF75DF82046FEF7B4FE34
:104CA000079840F2CC04C2F20004A062C8B100F040
:104CB00097FF411C36D0012813D14FF0500080F3EC
:104CC0001188BFF36F8FBFF34F8F4FF0FF30E0625B
:104CD000012020610020A0611EA001F09DF900F0DC
:104CE000B5F808B010BD00BF4FF0500080F3118838
:104CF000BFF36F8FBFF34F8FFEE700BF4FF0500041
:104D000080F31188BFF36F8FBFF34F8FFEE700BFB3
:104D10004FF0500080F31188BFF36F8FBFF34F8FB8
:104D2000FEE700BF4FF0500080F31188BFF36F8F94
:104D3000BFF34F8FFEE700BF765461736B5374610E
:104D400072745363686564756C65720049444C45C0
:104D50000000000046726F6D20765461736B5374CF
:104D60006172745363686564756C6572000000005D
:104D700040F2CC00C2F2000041690131416170474C
:104D800080B540F2CC0EC2F2000EDEF8141019B15C
:104D90000121CEF8301080BD0021CEF83010DEF8B1
:104DA000241040F2AC3C01EB8102C2F2000C5CF832
:104DB0002230002B0CEB82030CD05868426803F1C0
:104DC000080082425A6023D0D068CEF80000CEF8A6
:104DD000241080BD283B19B35A6901EB8100002AD9
:104DE0000CEB800226D101291AD0186830BB0229A9
:104DF00016D053F8140C28BB032911D053F8280CF3
:104E000004390028A3F15003E5D02833D5E700BFCB
:104E100052685A60D068CEF80000CEF8241080BDE9
:104E20004FF0500080F31188BFF36F8FBFF34F8FA7
:104E3000FEE700BFA2F114030139BEE7A2F1280387
:104E40000239BAE7A2F13C030339B6E7B0B584B042
:104E50004EF200444CF270255FA0CEF20004C4F282
:104E60000F1501F0D9F8D4F80009691C884209D15E
:104E70004FF0500080F31188BFF36F8FBFF34F8F57
:104E8000FEE700BFD4F80009A84209D14FF0500056
:104E900080F31188BFF36F8FBFF34F8FFEE700BF22
:104EA00020780290FF20207020788DF807009DF870
:104EB000070000F0500140F2A010C2F200000170A3
:104EC000072141609DF90710B1F1FF3F6EDC03211E
:104ED000CA1C42609DF807305B008DF807309DF9D1
:104EE0000730B3F1FF3F24DC8A1C42609DF8073095
:104EF0005B008DF807309DF90730B3F1FF3F18DCF8
:104F00004A1C42609DF807305B008DF807309DF920
:104F10000730B3F1FF3F0CDC41609DF807200439F6
:104F200052008DF807209DF90720B2F1FF3FCFDD39
:104F30000A1D032A3AD14FF4407141600298207053
:104F4000D4F8200940F47000C4F82009D4F82009EE
:104F500040F07040C4F82009FFF740FD40F25804CB
:104F6000C2F2000400252560FFF788FC4EF634707D
:104F7000CEF20000016841F0404101601BA001F049
:104F80004BF8FEF769FF1EA001F046F8FFF7F8FEA8
:104F9000039520684FF0500181F31188BFF36F8FA4
:104FA000BFF34F8F013011D0FEE700BF4FF050002C
:104FB00080F31188BFF36F8FBFF34F8FFEE700BF01
:104FC000039830B9039820B9039810B903980028C2
:104FD000F6D0002004B0B0BD78506F727453746185
:104FE00072745363686564756C65720053746172A2
:104FF00074204669727374205461736B2000000042
:10500000436F6E7465787420737769746368206683
:10501000726F6D2078506F72745374617274536341
:10502000686564756C65720080B54FF0500080F360
:105030001188BFF36F8FBFF34F8F00F055FC30B175
:105040004EF60450CEF200004FF080510160002077
:1050500080F3118880BD000070B505465020FFF731
:1050600027F9044670B30026012084F846602460C6
:10507000C4E90F06FFF70CFC2068D4E90F12A66301
:1050800002FB0103013901FB0201C4E90103FF2016
:10509000E16084F8440084F8450004F11000FFF753
:1050A0009DFB04F12400FFF799FBFFF715FC204658
:1050B00000210022002384F84C502660C4E90266D7
:1050C00000F0C2F8204670BD70B582B0D1B3502256
:1050D0000192019A502A3FD1019A0122002581F8BC
:1050E00046200960C1E90F250C460646FFF7D0FBB4
:1050F0002068D4E90F12A56302FB0103013901FB0B
:105100000201C4E90103FF20E16084F8440084F84F
:10511000450004F11000FFF761FB04F12400FFF7E4
:105120005DFBFFF7D9FB204600210022002384F815
:105130004C602560C4E9025500F086F8204602B0B4
:1051400070BD00BF4FF0500080F31188BFF36F8F28
:10515000BFF34F8FFEE700BF4FF0500080F3118880
:10516000BFF36F8FBFF34F8FFEE7000070B582B0C3
:1051700060B1ABB1F1B9EAB14FF0500080F31188E2
:10518000BFF36F8FBFF34F8FFEE700BF4FF05000AC
:1051900080F31188BFF36F8FBFF34F8FFEE700BF1F
:1051A0004FF0500080F31188BFF36F8FBFF34F8F24
:1051B000FEE700BF51B14AB94FF0500080F31188AB
:1051C000BFF36F8FBFF34F8FFEE700BF50250195F0
:1051D000019D502D2ED1019C069E012483F846404E
:1051E000002908BF1A461A60C3E90F011C46FFF7E1
:1051F0004FFB2068D4E90F12002502FB010301399F
:1052000001FB0201A563C4E90103FF20E16084F80A
:10521000440084F8450004F11000FFF7DFFA04F1C0
:105220002400FFF7DBFAFFF757FB204684F84C60B9
:1052300002B070BD4FF0500080F31188BFF36F8F44
:10524000BFF34F8FFEE700002DE9F04F83B00292CD
:10525000C0B11D460446F9B1022D02D1E06B012810
:105260005CD116460F4600F029FB18BB16B34FF071
:10527000500080F31188BFF36F8FBFF34F8F00BFD3
:10528000FEE700BF4FF0500080F31188BFF36F8F2F
:10529000BFF34F8FFEE700BF206C0028DCD04FF03B
:1052A000500080F31188BFF36F8FBFF34F8F00BFA3
:1052B000FEE700BFFFF7ECFAA06B022D65D0E16BB3
:1052C000884262D30298002800F018816846FFF7F0
:1052D0002FFCFFF701FBFFF74BFDFFF7D9FA94F81E
:1052E0004400FF2804BF002084F8440094F84500DF
:1052F000FF2804BF002084F84500FFF7EDFA684658
:1053000002A900F021FA98B12046FEF797FF00F0BD
:10531000EFFB002003B0BDE8F08F00BF4FF050005E
:1053200080F31188BFF36F8FBFF34F8FFEE700BF8D
:1053300004F11008FFF7ACFAD4F83890E66BFFF7E9
:10534000CBFAB14516D102994046FFF703FC20463F
:10535000FEF774FF00F0CCFB88B94EF60450CEF295
:1053600000004FF080510160BFF34F8FBFF36F8F8C
:1053700005E000BF2046FEF761FF00F0B9FBFFF734
:1053800087FAA06BE16B884266D2A66B226CDAB119
:1053900039462DB3E068FAF744FFE168206C2268D3
:1053A000091A9142E16003D2A16840420844E060DA
:1053B000A81EB0FA80F040093146002E18BF012126
:1053C0000840361A18E000BF2068A8B9A06800F0AD
:1053D0000DFB0021B0FA80F0A16040090DE000BF94
:1053E0006068FAF71EFFD4E90101226C104488427C
:1053F000606001D3206860600120711CA16354F8D3
:10540000241FA9B1204600F039FB50B14EF60450DC
:10541000CEF200004FF080510160BFF34F8FBFF319
:105420006F8FFFF759FA012003B0BDE8F08F00BF7E
:105430000028F6D14EF60450CEF200004FF0805115
:105440000160BFF34F8FBFF36F8FFFF745FA012065
:1054500003B0BDE8F08F00BFE94602AE0CE000BF2C
:105460002046FEF7EBFE00F043FBFFF711FAA06BBE
:10547000E16B8842FFF489AF029800283ED0FFF725
:105480002BFAFFF775FCFFF703FA94F84400FF28A6
:1054900004BF002084F8440094F84500FF2804BFAE
:1054A000002084F84500FFF717FA4846314600F01F
:1054B0004BF900287FF428AFFFF7EAF9D4F838A0B9
:1054C000D4F83CB0FFF708FADA45C9D10299404652
:1054D000FFF740FB2046FEF7B1FE00F009FB002875
:1054E000C3D14EF60450CEF200004FF0805101605F
:1054F000BFF34F8FBFF36F8FB7E700BFFFF7ECF934
:10550000002003B0BDE8F08F2DE9F04F83B0029288
:1055100090B115460446002948D00E4600F0CEF959
:10552000A0B99DB14FF0500080F31188BFF36F8F89
:10553000BFF34F8FFEE700BF4FF0500080F311889C
:10554000BFF36F8FBFF34F8FFEE700BFFFF7A0F9E8
:10555000D4F838A0BAF1000F36D0226C52B1D4E999
:10556000023130461144E160994224BF2168E16074
:10557000FAF757FEAAF10100A06354F8100F70B1BA
:10558000204600F07BFA50B14EF60450CEF20000F7
:105590004FF080510160BFF34F8FBFF36F8F012435
:1055A000FFF79AF9204603B0BDE8F08F206C002881
:1055B000B3D04FF0500080F31188BFF36F8FBFF36B
:1055C0004F8F00BFFEE700BF0298002800F0B480B4
:1055D0006846FFF7ADFAFFF77FF9FFF7C9FBFFF762
:1055E00057F994F8440004F12408FF2804BF002070
:1055F00084F8440094F84500FF2804BF002084F894
:105600004500FFF769F9684602A900F09DF878B1F6
:105610002046FEF713FE00F06BFAFFF739F9A56B91
:10562000FFF75AF92DBB0024204603B0BDE8F08FE8
:10563000FFF72EF9A56BFFF74FF92DB12046FEF7C6
:10564000FDFD00F055FA14E002994046FFF782FA9A
:105650002046FEF7F3FD00F04BFA50B94EF6045029
:10566000CEF200004FF080510160BFF34F8FBFF3C7
:105670006F8FFFF70DF9D4F838A0BAF1000F7FF45F
:105680006CAF4FF00009EB4602AF13E02046FEF787
:10569000D5FD00F02DFAFFF7FBF8A56BFFF71CF91D
:1056A000002DC0D0FFF7F4F8D4F838A0BAF1000FFD
:1056B0007FF453AF029800283ED0FFF70DF9FFF7B3
:1056C00057FBFFF7E5F894F84400FF2808BF84F87B
:1056D000449094F84500FF2808BF84F84590FFF7F0
:1056E000FBF85846394600F02FF80028CED1FFF7D6
:1056F000CFF8A56BFFF7F0F835B12046FEF79EFD19
:1057000000F0F6F9CEE700BF02994046FFF722FA13
:105710002046FEF793FD00F0EBF90028C2D14EF6CB
:105720000450CEF200004FF080510160BFF34F8F64
:10573000BFF36F8FB6E700BF0024FFF7CDF8204618
:1057400003B0BDE8F08F0000B0B548B30C4689B394
:105750000546FFF79DF840F2CC0CC2F2000CDCF8D5
:1057600018302268501C2FD0AE46D5E90050DCF826
:105770003810A94201D083422ED2181A824229D968
:10578000101A2060DCF838000024CEF80000DCF8A5
:105790001800CEF80400FFF79FF82046B0BD00BF08
:1057A0004FF0500080F31188BFF36F8FBFF34F8F1E
:1057B000FEE700BF4FF0500080F31188BFF36F8FFA
:1057C000BFF34F8FFEE700BF0024FFF785F82046A8
:1057D000B0BD00BF002020600124FFF77DF8204607
:1057E000B0BD00002DE9F04184B007469000984616
:1057F00015460E46FEF75CFDF8B104465C20FEF748
:1058000057FDB8B1DDE90A210023046380F859305F
:10581000CDE900210446384631462A4643460294E3
:10582000FEF798FA2046FEF7EFF8012004B0BDE835
:10583000F08100BF2046FFF767F84FF0FF3004B05B
:10584000BDE8F08170B586B00B9CCCB10C9E0EB358
:105850005C250495049D5C2D26D1049DDDF828C0AF
:10586000022586F8595005AD3463CDE900C502968E
:10587000FEF770FA3046FEF7C7F8059806B070BD1F
:105880004FF0500080F31188BFF36F8FBFF34F8F3D
:10589000FEE700BF4FF0500080F31188BFF36F8F19
:1058A000BFF34F8FFEE700BF4FF0500080F3118829
:1058B000BFF36F8FBFF34F8FFEE7000040F2CC00C5
:1058C000C2F20000016900290FBF01204069B0FA4F
:1058D00080F0400918BF40007047000040F2CC0043
:1058E000C2F20000806970472DE9F04381B040F2B8
:1058F000CC06C2F20006706940B1706B0024013022
:105900007063204601B0BDE8F08300BFB06910F1BC
:105910000109C6F8189020D3F069006850B14FF023
:10592000500080F31188BFF36F8FBFF34F8F00BF1C
:10593000FEE700BFF069316AF1613062B06B01309F
:10594000B063F069006828B1F069C068C068406859
:1059500002E000BF4FF0FF30F062F06A40F2AC3876
:105960008145C2F2000801D200242EE0F069002433
:10597000006813E0F86A716A884288BF706200EBC1
:10598000800008EB80002946FEF76AFFF86A31685C
:10599000C96AF269884228BF0124106890B1F06991
:1059A000C068C7683D4655F8040F81450CD32846AA
:1059B000FEF7E6FEB86A0028DCD007F11800FEF713
:1059C000DFFED7E74FF0FF30F0623068C06A00EBCF
:1059D000800058F82000012888BF0124306B00287F
:1059E00018BF0124204601B0BDE8F08370B588B12E
:1059F00040F2CC05C2F20005296881420CD04FF07C
:105A0000500080F31188BFF36F8FBFF34F8F00BF3B
:105A1000FEE700BF002070BD016D29B301390165AB
:105A20004FF000011DD1C26AC36C9A4219D0041D07
:105A300006462046FEF7A4FEF06CC0F13801F06285
:105A4000B161696A884240F2AC3188BF686200EB9C
:105A50008000C2F2000101EB80002146FEF700FF4A
:105A60000121084670BD00BF4FF0500080F311883F
:105A7000BFF36F8FBFF34F8FFEE7000070B5C068B4
:105A8000C5686DB105F118042046FEF779FE40F2B5
:105A9000CC06C2F20006706960B106F164001AE03B
:105AA0004FF0500080F31188BFF36F8FBFF34F8F1B
:105AB000FEE700BF2C1D2046FEF762FEE86A716A11
:105AC000884240F2AC3188BF706200EB8000C2F2C5
:105AD000000101EB80002146FEF7C2FEE86A316852
